:020000040000fa
:080000000002040000000000f2
:020000040000fa
:04000800ca07000023
:020000040000fa
:04000c003a030000b3
:020000040000fa
:040010004c0300009d
:020000040000fa
:0400140042030000a3
:020000040000fa
:04001800540300008d
:020000040000fa
:04001c00ca0700000f
:020000040000fa
:04002000ca0700000b
:020000040000fa
:04002400ca07000007
:020000040000fa
:04002800ca07000003
:020000040000fa
:04002c00ca070000ff
:020000040000fa
:04003000ca070000fb
:020000040000fa
:040034001c030000a9
:020000040000fa
:04003800ca070000f3
:020000040000fa
:04003c00ca070000ef
:020000040000fa
:04004000ca070000eb
:020000040000fa
:04004400580400005c
:020000040000fa
:04004800ca070000e3
:020000040000fa
:04004c00ca070000df
:020000040000fa
:04005000ca070000db
:020000040000fa
:040054009e03000007
:020000040000fa
:040058005c03000045
:020000040000fa
:04005c00ca070000cf
:020000040000fa
:04006000ca070000cb
:020000040000fa
:04006400ca070000c7
:020000040000fa
:04006800ca070000c3
:020000040000fa
:04006c00ca070000bf
:020000040000fa
:04007000ca070000bb
:020000040000fa
:04007400ca070000b7
:020000040000fa
:04007800ca070000b3
:020000040000fa
:04007c00ca070000af
:020000040000fa
:04008000ca070000ab
:020000040000fa
:04008400ca070000a7
:020000040000fa
:04008800ca070000a3
:020000040000fa
:04008c00ca0700009f
:020000040000fa
:04009000ca0700009b
:020000040000fa
:04009400ca07000097
:020000040000fa
:04009800ca07000093
:020000040000fa
:04009c00ca0700008f
:020000040000fa
:0400a0001004000048
:020000040000fa
:0400a400d003000085
:020000040000fa
:0400a800ca07000083
:020000040000fa
:0400ac00ca0700007f
:020000040000fa
:0400b000ca0700007b
:020000040000fa
:0400b400ca07000077
:020000040000fa
:0400b800ca07000073
:020000040000fa
:0400bc00ca0700006f
:020000040000fa
:0400c000ca0700006b
:020000040000fa
:0400c400ca07000067
:020000040000fa
:0400c800ca07000063
:020000040000fa
:0400cc00ca0700005f
:020000040000fa
:0400d000ca0700005b
:020000040000fa
:0400d400ca07000057
:020000040000fa
:0400d800ca07000053
:020000040000fa
:0400dc00ca0700004f
:020000040000fa
:0400e000ca0700004b
:020000040000fa
:0400e400ca07000047
:020000040000fa
:0400e800ca07000043
:020000040000fa
:0400ec00ca0700003f
:020000040000fa
:0400f000ca0700003b
:020000040000fa
:0400f400ca07000037
:020000040000fa
:0400f800ca07000033
:020000040000fa
:0400fc00ca0700002f
:020000040000fa
:04010000ca0700002a
:020000040000fa
:04010400ca07000026
:020000040000fa
:04010800ca07000022
:020000040000fa
:04010c00ca0700001e
:020000040000fa
:04011000ca0700001a
:020000040000fa
:04011400ca07000016
:020000040000fa
:04011800ca07000012
:020000040000fa
:04011c00ca0700000e
:020000040000fa
:04012000ca0700000a
:020000040000fa
:04012400ca07000006
:020000040000fa
:04012800ca07000002
:020000040000fa
:04012c00ca070000fe
:020000040000fa
:040130004204000085
:020000040000fa
:04013400ca070000f6
:020000040000fa
:04013800ca070000f2
:020000040000fa
:04013c00ca070000ee
:020000040000fa
:04014000ca070000ea
:020000040000fa
:04014400ca070000e6
:020000040000fa
:04014800ca070000e2
:020000040000fa
:04020800ca07000021
:020000040000fa
:04020c00ca0700001d
:020000040000fa
:04021000ca07000019
:020000040000fa
:04021400ca07000015
:020000040000fa
:04021800ca07000011
:020000040000fa
:04021c00ca0700000d
:020000040000fa
:04022000ca07000009
:020000040000fa
:04022400ca07000005
:020000040000fa
:04022800ca07000001
:020000040000fa
:04022c00ca070000fd
:020000040000fa
:04023000ca070000f9
:020000040000fa
:04023400ca070000f5
:020000040000fa
:04023800ca070000f1
:020000040000fa
:04023c00ca070000ed
:020000040000fa
:04024000ca070000e9
:020000040000fa
:04024400ca070000e5
:020000040000fa
:04024800ca070000e1
:020000040000fa
:04024c00ca070000dd
:020000040000fa
:04025000ca070000d9
:020000040000fa
:04025400ca070000d5
:020000040000fa
:04025800ca070000d1
:020000040000fa
:04025c00ca070000cd
:020000040000fa
:04026000ca070000c9
:020000040000fa
:04026400ca070000c5
:020000040000fa
:04026800ca070000c1
:020000040000fa
:04026c00ca070000bd
:020000040000fa
:04027000ca070000b9
:020000040000fa
:04027400ca070000b5
:020000040000fa
:04027800ca070000b1
:020000040000fa
:04027c00ca070000ad
:020000040000fa
:04028000ca070000a9
:020000040000fa
:04028400ca070000a5
:020000040000fa
:04028800ca070000a1
:020000040000fa
:04028c00ca0700009d
:020000040000fa
:04029000ca07000099
:020000040000fa
:04029400ca07000095
:020000040000fa
:04029800ca07000091
:020000040000fa
:04029c00ca0700008d
:020000040000fa
:0402a000ca07000089
:020000040000fa
:0402a400ca07000085
:020000040000fa
:0402a800ca07000081
:020000040000fa
:0402ac00ca0700007d
:020000040000fa
:0402b000ca07000079
:020000040000fa
:0402b400ca07000075
:020000040000fa
:0402b800ca07000071
:020000040000fa
:0402bc00ca0700006d
:020000040000fa
:0402c000ca07000069
:020000040000fa
:0402c400ca07000065
:020000040000fa
:0402c800ca07000061
:020000040000fa
:0402cc00ca0700005d
:020000040000fa
:0402d000ca07000059
:020000040000fa
:0402d400ca07000055
:020000040000fa
:0402d800ca07000051
:020000040000fa
:0402dc00ca0700004d
:020000040000fa
:0402e000ca07000049
:020000040000fa
:0402e400ca07000045
:020000040000fa
:0402e800ca07000041
:020000040000fa
:0402ec00ca0700003d
:020000040000fa
:0402f000ca07000039
:020000040000fa
:0402f400ca07000035
:020000040000fa
:0402f800ca07000031
:020000040000fa
:0402fc00ca0700002d
:020000040000fa
:04030000ca07000028
:020000040000fa
:04030400ca07000024
:020000040000fa
:04030800ca07000020
:020000040000fa
:04030c00ca0700001c
:020000040000fa
:04031000ca07000018
:020000040000fa
:04031400ca07000014
:020000040000fa
:04031800ca07000010
:020000040000fa
:04031c00ca0700000c
:020000040000fa
:04032000ca07000008
:020000040000fa
:04032400ca07000004
:020000040000fa
:04032800ca07000000
:020000040000fa
:04032c00ca070000fc
:020000040000fa
:04033000ca070000f8
:020000040000fa
:04033400ca070000f4
:020000040000fa
:04033800ca070000f0
:020000040000fa
:04033c00ca070000ec
:020000040000fa
:04034000ca070000e8
:020000040000fa
:04034400ca070000e4
:020000040000fa
:04034800ca070000e0
:020000040000fa
:100400000fc920000e7f22000e01880000000000ae
:10041000000020000000e000020032000001200087
:100420002002880014000700dc0207000000e00042
:1004300003003a00203c21000100200002003700a8
:100440000000200001002000810f70000100320038
:1004500014000700000020000000e000020032004d
:100460000000020000000000361202000000000040
:100470000040da000000fe004440a90000202000f7
:100480000000e0000300320000002000a00188000e
:100490004440a800000006008a1f78008b1f7800e7
:1004a0000000060091018800800478000000eb0045
:1004b0001a003700e284440032a0b4009905ba0063
:1004c000e284440032a0b4009906ba00e2844400f9
:1004d00032a0b4000006eb00476fde00fd07b2005b
:1004e000636ce10003003a00ebff07000000eb0043
:1004f0000a003700606ce10004003a00005deb0088
:100500008b05e900fdff3e00040037006168e10053
:10051000010032000086eb000b00070019c7ba008b
:100520001905ba000e04e00003003a000a00e000da
:10053000e0ff3a0000000600fe07b2009e018800be
:100540008a047800f5ff3700395dba008b05e900b1
:100550000c003200295dba008b05e900080032006a
:100560000c00e00003003a00e284440032a0b40032
:10057000f5ff370019ddba008b05e900faff3a00f4
:100580008904e800e184440032a0b40000000600c1
:10059000000000000000000000000000000000005b
:1005a000000000000000000000000000000000004b
:1005b000000000000000000000000000000000003b
:1005c000000000000000000000000000000000002b
:1005d000000000000000000000000000000000001b
:1005e000000000000000000000000000000000000b
:1005f00000000000000000000000000000000000fb
:1006000000000000000000000000000000000000ea
:1006100000000000000000000000000000000000da
:1006200000000000000000000000000000000000ca
:100630000000000000000000809fbe000000fa00e3
:100640001828ef00d0c82000104078008040e80053
:10065000d0c8200001487800c0c8200011c0b300f5
:10066000014878008460a9000080fa004f00be00b5
:10067000004006003600f8008020a9000000eb00d2
:100680003e0a07003600f800400a07008040a90033
:1006900010002000390a07003600f8008060a90029
:1006a00020002000350a07003600f8008080a900ed
:1006b00030002000310a0700809fbe000000fa00d1
:1006c000101680006200600000f0a7000000ea0041
:1006d0000000e9004f00de00004078000080fb00d1
:1006e0006100600000004000111680000110a100b0
:1006f0000100700010168800a04080000000e80093
:10070000a040880016c8bf000040e90016e8b70006
:1007100016c8bf000004e00004003200a0408000c2
:10072000104078000080fb00201188008580a9001f
:100730000080fa004f00be00004006003600f800be
:10074000809fbe00829fbe00849fbe00869fbe0029
:100750000000fa000621ef00301180000040780010
:100760001be8b700c202a800c04080008000400023
:10077000c0b7200000804000100078000000010099
:100780008560a9000080fa004f03be004f02be0042
:100790004f01be004f00be003600f90000400600c9
:1007a000809fbe000000fa0010168000610060000b
:1007b00000f0a7000000ea000000e9004f00de00a2
:1007c000004078000080fb0061006000111680008e
:1007d0000100a1000100700010168800a0408000f8
:1007e0000000e800a040880016c8bf000040e900f3
:1007f00016e8b70016c8bf000004e000040032008d
:10080000a0408000104078000080fb00a01188000c
:1008100087e0a9000080fa004f00be0000400600fb
:100820003600f800809fbe00829fbe00849fbe00fd
:10083000869fbe000000fa000021ef00b01180008a
:10084000004078001be8b700c202a800c04080004a
:1008500080004000c0b720000080400010007800f9
:100860000000010087c0a9000080fa004f03be000d
:100870004f02be004f01be004f00be003600f9001f
:1008800000400600801f78000000fa0090118000f0
:10089000620060000000e000010032003222a90086
:1008a0008c40a9000080fa004f007800004006004c
:1008b0003600f800809fbe00829fbe00849fbe006d
:1008c000869fbe000000fa0080418000e10f5000ca
:1008d00003003200e20f500005013200980137009a
:1008e000a0418000e50f500005003a0080418000e3
:1008f0000000e8008041880010002000a04188002e
:10090000a0418000e30f500098003200e30f500038
:1009100005003c00e10f500008003200e20f5000db
:1009200013003200f0003700e40f5000b100320035
:10093000e50f5000df003200eb0037003040800050
:100940000000d100614060000080fb008001780061
:100950001200200051c0b30010c0b300f70407001c
:10096000a04180000000e800a0418800df003700bf
:1009700090418000e40f50003d003200e40f500031
:1009800007003c00e20f50001b003200e20f500055
:1009900028003c00e10f5000080032006f003700d3
:1009a000e60f500050003200e60f50003f003500c7
:1009b000e70f50005b003200680037009041800074
:1009c0008000400040a92000008040009000780096
:1009d00090418000810178000001780061c0b3007f
:1009e00020c0b300d5040700904180000000e8005b
:1009f00090418800590037009041800080004000fd
:100a000040a92000008040009000780090418000c4
:100a1000810178000001780061c0b30020c0b300fc
:100a2000c6040700904180000000e8009041880063
:100a30004a003700904180008000400040a920001b
:100a40000080400090007800904180008101780093
:100a50000001780061c0b30020c0b300b7040700f4
:100a6000904180000000e800904188003b00370082
:100a7000904180008000400040a92000008040009c
:100a8000900078009041800081017800000178009a
:100a900061c0b30020c0b300a804070090418000eb
:100aa0000000e800904188002c0037009041800051
:100ab0008000400040a920000080400090007800a5
:100ac00090418000810178000001780061c0b3008e
:100ad00020c0b30099040700904180000000e800a6
:100ae000904188001d003700904180008000400048
:100af00040a92000008040009000780090418000d4
:100b0000810178000001780061c0b30020c0b3000b
:100b10008a040700904180000000e80090418800ae
:100b20000e003700904180008000400040a9200066
:100b300000804000900078009041800081017800a2
:100b40000001780061c0b30020c0b3007b0407003f
:100b5000100020009041880000000000a0418000ab
:100b60000000e800a04188006000370000418000dc
:100b70000000e00003003200e10f50000e003200e0
:100b800018003700304080004200de006140600005
:100b90000080fb00800178006200200051c0b3009b
:100ba00030c0b30065040700004180000000e80089
:100bb000004188000b003700304080004300de0019
:100bc000614060000080fb0080017800620020002e
:100bd00051c0b30020c0b300580407002028ef0024
:100be00000000000a04180000000e800a041880053
:100bf0003e00370010418000e10f5000110032002c
:100c0000e20f50001c0032000000e00025003a0016
:100c1000304080004400de00614060000080fb0046
:100c2000800178006200200051c0b30030c0b300e2
:100c300042040700104180000000e80010418800d5
:100c400018003700304080004500de006140600041
:100c50000080fb00800178006200200051c0b300da
:100c600020c0b30035040700104180000000e800f8
:100c7000104188000b003700304080004600de0045
:100c8000614060000080fb0080017800620020006d
:100c900051c0b30020c0b300280407002228ef0091
:100ca00000000000a04180000000e800a041880092
:100cb0000e003700304080004700de0061406000d9
:100cc0000080fb00800178006200200051c0b3006a
:100cd00050c0b30019040700a04180000000e800e4
:100ce000a041880001003700000000009400370098
:100cf000a0418000e90f500003003a0080418000cd
:100d00000000e90080418800a0418000e50f50000c
:100d10005d003200e50f50000c003c00e20f500077
:100d20002d003200e20f500003003c00e10f5000a4
:100d30000f00320080003700e30f50002f00320018
:100d4000e40f5000360032007b003700e70f500000
:100d50005f003200e70f500054003500e80f5000ec
:100d600064003200e90f50006b003200720037005f
:100d7000104180000000e00003003200e10f50004d
:100d80000a00320010003700130020000001eb00c1
:100d900041c0b30010c0b300b7030700104180008a
:100da0000000e80010418800070037001300200011
:100db0001200200041c0b30010c0b300ae03070012
:100dc0002228ef0000000000a04180000000e800a1
:100dd000a041880059003700130020000001eb00fb
:100de00041c0b30020c0b300a3030700a0418000ae
:100df0000000e800a04188005000370013002000e8
:100e00001200200041c0b30030c0b3009a030700b5
:100e1000a04180000000e800a041880047003700a2
:100e2000004180000000e00003003200e10f5000ac
:100e30000a003200100037001300200012002000ca
:100e400041c0b30040c0b3008b03070000418000e5
:100e50000000e80000418800070037001300200070
:100e60000001eb0041c0b30040c0b30082030700a3
:100e70002028ef0000000000a04180000000e800f2
:100e8000a04188002d003700130020000001eb0076
:100e900041c0b30050c0b30077030700a0418000f9
:100ea0000000e800a0418800240037001300200063
:100eb0000001eb0041c0b30060c0b3006e03070047
:100ec000a04180000000e800a04188001b0037001e
:100ed000130020000001eb0041c0b30070c0b3005c
:100ee00065030700a04180000000e800a0418800e1
:100ef00012003700130020000001eb0041c0b300d6
:100f000080c0b3005c030700a04180000000e8003f
:100f1000a041880009003700130020000001eb0009
:100f200041c0b30090c0b30053030700100020007d
:100f3000a041880001003700000000000000000010
:100f4000304180000000e0000200320030418000ab
:100f500000000100f0c82000104078008040e80048
:100f6000f0c8200001487800e0c8200011c0b3009c
:100f70000148780084e0a9000080fa004f03be0019
:100f80004f02be004f01be004f00be003600f90008
:100f9000004006000040da000000fe0000000500ee
:020000040000fa
:100fa00000000000c1c0000081c10000400100003d
:100fb00001c30000c00300008002000041c2000025
:100fc00001c60000c00600008007000041c7000005
:100fd00000050000c1c5000081c4000040040000fd
:100fe00001cc0000c00c0000800d000041cd0000cd
:100ff000000f0000c1cf000081ce0000400e0000b5
:10100000000a0000c1ca000081cb0000400b0000b4
:1010100001c90000c00900008008000041c80000ac
:1010200001d80000c01800008019000041d900005c
:10103000001b0000c1db000081da0000401a000044
:10104000001e0000c1de000081df0000401f000024
:1010500001dd0000c01d0000801c000041dc00001c
:1010600000140000c1d4000081d50000401500002c
:1010700001d70000c01700008016000041d6000014
:1010800001d20000c01200008013000041d3000014
:1010900000110000c1d1000081d00000401000000c
:1010a00001f00000c03000008031000041f100007c
:1010b00000330000c1f3000081f200004032000064
:1010c00000360000c1f6000081f700004037000044
:1010d00001f50000c03500008034000041f400003c
:1010e000003c0000c1fc000081fd0000403d00000c
:1010f00001ff0000c03f0000803e000041fe0000f4
:1011000001fa0000c03a0000803b000041fb0000f3
:1011100000390000c1f9000081f8000040380000eb
:1011200000280000c1e8000081e90000402900001b
:1011300001eb0000c02b0000802a000041ea000003
:1011400001ee0000c02e0000802f000041ef0000e3
:10115000002d0000c1ed000081ec0000402c0000db
:1011600001e40000c02400008025000041e50000eb
:1011700000270000c1e7000081e6000040260000d3
:1011800000220000c1e2000081e3000040230000d3
:1011900001e10000c02100008020000041e00000cb
:1011a00001a00000c06000008061000041a10000bb
:1011b00000630000c1a3000081a2000040620000a3
:1011c00000660000c1a6000081a700004067000083
:1011d00001a50000c06500008064000041a400007b
:1011e000006c0000c1ac000081ad0000406d00004b
:1011f00001af0000c06f0000806e000041ae000033
:1012000001aa0000c06a0000806b000041ab000032
:1012100000690000c1a9000081a80000406800002a
:1012200000780000c1b8000081b9000040790000da
:1012300001bb0000c07b0000807a000041ba0000c2
:1012400001be0000c07e0000807f000041bf0000a2
:10125000007d0000c1bd000081bc0000407c00009a
:1012600001b40000c07400008075000041b50000aa
:1012700000770000c1b7000081b600004076000092
:1012800000720000c1b2000081b300004073000092
:1012900001b10000c07100008070000041b000008a
:1012a00000500000c19000008191000040510000fa
:1012b00001930000c05300008052000041920000e2
:1012c00001960000c05600008057000041970000c2
:1012d00000550000c19500008194000040540000ba
:1012e000019c0000c05c0000805d0000419d00008a
:1012f000005f0000c19f0000819e0000405e000072
:10130000005a0000c19a0000819b0000405b000071
:1013100001990000c0590000805800004198000069
:1013200001880000c0480000804900004189000099
:10133000004b0000c18b0000818a0000404a000081
:10134000004e0000c18e0000818f0000404f000061
:10135000018d0000c04d0000804c0000418c000059
:1013600000440000c1840000818500004045000069
:1013700001870000c0470000804600004186000051
:1013800001820000c0420000804300004183000051
:1013900000410000c1810000818000004040000049
:020000040000fa
:1013a0000000fa0097e0a90097c0a9008000200083
:1013b000801188003222ef00001a2000c01188003e
:1013c00097c0a80031e2a8003342a80087e0a90036
:1013d00097e0a8000080fa00000006000200fa0072
:1013e000000f78001e007800e04088000080fa00be
:1013f000000006000000fa0081408000704080007c
:10140000808f500002003a0097e0a90019003700d1
:1014100087e0a900100037008040800090407800ed
:101420008180fb00a11188000000e8008040880056
:101430008140800030b72000808f500002003a00c9
:10144000a0b620008040880081408000704080006d
:10145000808f500006003200911180000020200093
:10146000008060000000e000ebff32000100370068
:10147000000000000080fa00000006000200fa00f0
:10148000000f78001e007800f04088000080fa000d
:10149000000006000000fa00b181200091407800b1
:1014a00008c8bf0080cf50000d003a001a68ef0056
:1014b0001ac8bf008080fb00b381200093417800f0
:1014c00022aa200003f178000040e8001ae8b700e3
:1014d00010002000c0408800c202a90002003700ae
:1014e00020012000c04088000080fa0000000600b3
:1014f0000000fa001ac8bf008080fb00b381200002
:101500009341780022aa200003f178000040e8000f
:101510001ae8b7001bc8bf000080fb00e40f5000b2
:101520001b003200e40f500007003c00e20f5000a7
:1015300011003200e20f500012003c00e10f500099
:101540000a00320021003700e60f5000160032007a
:10155000e60f500011003500ef0f5000150032006b
:10156000f00f500016003200180037002000200055
:10157000c04088001800370020002000c0408800cc
:101580001500370020002000c040880012003700fe
:1015900020002000c04088000f00370060002000bd
:1015a000c04088000c003700c0002000c040880008
:1015b0000900370020012000c040880006003700e5
:1015c00020012000c04088000300370020012000d7
:1015d000c0408800000000000080fa000000060003
:1015e0000000fa001ac8bf008080fb00b381200011
:1015f0009341780022aa200003f178000040e8001f
:101600001ae8b70030002000c040880010c0b300c6
:101610003ae8b7000080fa00000006000000fa0077
:101620001ac8bf008080fb00b3812000934178007e
:1016300022aa200003f178000040e8001ae8b70071
:1016400040aa2000904078003ac8bf0080cf5000e8
:1016500002003a0040002000c04088003ac8bf00a5
:101660000040e8003ae8b7000080fa0000000600f9
:101670000000fa001ac8bf008080fb00b381200080
:101680009341780022aa200003f178000040e8008e
:101690001ae8b70050002000c04088000080fa001f
:1016a000000006000000fa001ac8bf008080fb009e
:1016b000b38120009341780022aa200003f1780032
:1016c0000040e8001ae8b70020012000c040880070
:1016d0001ac8bf000080fb008000780020aa20000c
:1016e000cc0507000000e0007b003a0010168000e7
:1016f0006100600000f0a7000000ea000000e900bf
:101700004f00de00004078000080fb0061006000b8
:10171000111680000100a100010070001016880061
:1017200010c0b3003ae8b7006600370030aa2000c6
:10173000104078000080fb00e20f50001f003200d4
:10174000e20f500003003c00e10f500006003200a1
:1017500059003700e30f50002d003200e40f500015
:10176000400032005400370020aa200010407800ca
:101770000080fb00a1832000914078008181fb0064
:10178000a1832000914078008180fb008180e800e7
:1017900022aa2000e2c078000181fb006600b900a7
:1017a000000078000300400080004000409a2000c4
:1017b00000804000020878003f00370020aa200087
:1017c000104078000080fb00a18320009140780049
:1017d0008181fb00a1832000914078008180fb0083
:1017e0008180e80022aa2000e2c078000181fb008d
:1017f0006600b9000000780003004000800040004f
:10180000c0a1200000804000020878002a003700b4
:1018100020aa2000104078000080fb00a183200057
:10182000914078008181fb00a183200091407800e5
:101830008180fb008180e80022aa2000e2c07800bd
:101840000181fb006600b900000078000300400041
:1018500080004000c0922000008040000208780014
:101860001500370020aa2000104078000080fb00ff
:10187000a1832000914078008181fb00a18320009a
:10188000914078008180fb008180e80022aa20003e
:10189000e2c078000181fb006600b900000078001a
:1018a0000300400080004000c09220000080400003
:1018b00002087800000000003ac8bf000040e800bd
:1018c0003ae8b70030aa2000904078003ac8bf003c
:1018d00080cf500095ff32000080fa000000060023
:1018e0000000fa001ac8bf008080fb00b38120000e
:1018f0009341780022aa200003f178000040e8001c
:101900001ae8b7001bc8bf0001e8b700700020004c
:10191000c04088000080fa00000006000000fa00c5
:101920001ac8bf008080fb00b3812000934178007b
:1019300022aa200003f178000040e8001ae8b7006e
:101940001bc8bf0000e8b70080002000c04088002e
:101950000080fa00000006000000fa001ac8bf006c
:101960008080fb00b38120009341780022aa2000f0
:1019700003f178000040e8001ae8b7001bc8bf0078
:1019800003e8b70090002000c04088000080fa0003
:10199000000006000000fa001ac8bf008080fb00ab
:1019a000b38120009341780022aa200003f178003f
:1019b0000040e8001ae8b7001bc8bf0002e8b70003
:1019c000a0002000c04088000080fa00000006004f
:1019d0000000fa001ac8bf008080fb00b38120001d
:1019e0009341780022aa200003f178000040e8002b
:1019f0001ae8b7001bc8bf0005e8b700b000200018
:101a0000c04088000080fa00000006000000fa00d4
:101a10001ac8bf008080fb00b3812000934178008a
:101a200022aa200003f178000040e8001ae8b7007d
:101a30001bc8bf0004e8b70020012000c040880098
:101a40001ac8bf000080fb008000780020aa200098
:101a5000f00407000000e00015003a0010c0b300d9
:101a600009e8b7003a68ef000e0037003ac8bf0037
:101a70000080fb0021aa2000e14078003ac8bf00a6
:101a80000080fb0062b020006240780080cf5000f0
:101a9000010032000968ef003ac8bf000040e800ca
:101aa0003ae8b7003ac8bf00e74f5000efff3200f6
:101ab0000080fa00000006000000fa001ac8bf000b
:101ac0008080fb00b38120009341780022aa20008f
:101ad00003f178000040e8001ae8b700d0002000c9
:101ae000c04088000080fa00000006000000fa00f4
:101af0001ac8bf008080fb00b381200093417800aa
:101b000022aa200003f178000040e8001ae8b7009c
:101b1000e0002000c04088000080fa0000000600bd
:101b20000000fa001ac8bf008080fb00b3812000cb
:101b30009341780022aa200003f178000040e800d9
:101b40001ae8b700f0002000c04088000080fa00ca
:101b5000000006000000fa001ac8bf008080fb00e9
:101b6000b38120009341780022aa200003f178007d
:101b70000040e8001ae8b70000012000c0408800db
:101b80000080fa00000006000000fa001ac8bf003a
:101b90008080fb00b38120009341780022aa2000be
:101ba00003f178000040e8001ae8b70010012000b7
:101bb000c04088000080fa00000006000000fa0023
:101bc0001ac8bf008080fb00b381200093417800d9
:101bd00022aa200003f178000040e8001ae8b700cc
:101be00020012000c04088001ac8bf000080fb0010
:101bf0008000780020aa2000860407000000e00092
:101c000015003a0010c0b30009e8b7003a68ef00c9
:101c10000e0037003ac8bf000080fb0021aa200058
:101c2000e14078003ac8bf000080fb0062b02000ad
:101c30006240780080cf5000010032000968ef0058
:101c40003ac8bf000040e8003ae8b7003ac8bf0011
:101c5000e74f5000efff32000080fa00000006005e
:101c60000000fa000080fa00000006000000fa0000
:101c70000080fa00000006000a00fa0040479800c1
:101c8000514798003207980043079800be00900023
:101c9000010f7800ce0090001107980060b020007e
:101ca000ce4090000148780070b02000de409000e7
:101cb000014878009e40900080b0200001487800e4
:101cc0009e40780090b0200001487800be4090000f
:101cd000a0b0200001487800ae409000b0b02000d5
:101ce000014878006100200060b02000490407002e
:101cf000204088004180200091407800c0b0200042
:101d0000014878005180200091407800d0b0200038
:101d10000148780080c0b30016e8b70060b020002a
:101d2000a0408800a0408000104078000080fb00a8
:101d3000a01188000080fa00000006000a00fa00e6
:101d40004047980051479800320798004307980091
:101d5000be009000010f78004e019000120798001d
:101d60005e40900050c0b2000080fb000000e9001f
:101d70004f00de0000407800ce0090000100a2007d
:101d800001f0a7008100ea008100e900cf08de0031
:101d900081407800014060000004e0000200320051
:101da00000f02f00100798005e40900050c0b20075
:101db0000080fb000000e9004f00de0000407800da
:101dc000ce00900001f0a7008100ea008100e90048
:101dd000cf08de0081407800014060000004e00090
:101de000020032000000eb001007980060b02000f5
:101df000ce4090000148780070b020005e41900015
:101e0000024878009e40900080b020000148780091
:101e10009e40780090b0200001487800be409000bd
:101e2000a0b0200001487800ae409000b0b0200083
:101e3000014878006100200060b02000f503070031
:101e4000204088004180200091407800c0b02000f0
:101e5000014878005180200091407800d0b02000e7
:101e60000148780080c0b30016e8b70060b02000d9
:101e7000a04088004e419000818020008248780078
:101e8000a0408000104078000080fb00a011880076
:101e90000080fa00000006000000fa001e00370073
:101ea00050408000b11180008140780001487800e6
:101eb00051408000b0b72000808f500009003200f0
:101ec000504080008000e80060408000808f50001b
:101ed00004003200504080000000e80050408800bc
:101ee0000d00370051408000b0b72000808f5000b7
:101ef00007003a006140800030b72000808f50001a
:101f00000300320030b72000504088000200370044
:101f100010c0b30012e8b7009011800061006000ab
:101f20000000e000deff3a0087c0a9000080fa0050
:101f3000000006000200fa000040eb00004f7800ad
:101f4000000000006140800050408000808f500001
:101f5000fcff320060408000104f7800604080003d
:101f60000000e8006040880061408000c0b72000a9
:101f7000808f500002003a0030b720006040880097
:101f80001e4078000080fa00000006000200fa00ff
:101f9000004f7800000000001c0007000004a200b1
:101fa0000004e000fcff3a00704080001e4878000a
:101fb000704080000000e8007040880071408000a0
:101fc00030b72000808f500002003a00a0b62000f9
:101fd0007040880097e0a8000080fa00000006002a
:101fe0000000fa00614080005040800000806800de
:101ff00000f0a7000000ea000000ea004f00de0049
:10200000004078000080fa00000006000400fa009a
:102010008140800011079800714080001e009000f0
:10202000808f5000060031009e00900070408000bc
:10203000008050000000e900000f78000500370024
:102040009e009000704080000080500068004000ba
:10205000000f78001e00780000f0a7000000ea00e2
:102060000000ea004f00de00004078000080fa0027
:10207000000006000000fa007140800080408000ef
:10208000808f500009003a0091118000001020005c
:102090000080600000f0a7000000ea000000ea00f5
:1020a0004f00de0000407800010037000040eb00e8
:1020b0000080fa00000006000400fa005140800091
:1020c00011079800604080009e009000808f5000b3
:1020d000060031009e0090006040800000805000ab
:1020e00069004000000f7800040037009e00900057
:1020f0006040800000805000000f7800f00f20004a
:102100009e007800808f50000200360000c0eb0077
:10211000020037001e007800004078000080fa00be
:10212000000006000400fa008140800011079800ba
:10213000714080001e009000808f5000060031002a
:102140009e00900070408000008050000000e90078
:10215000000f7800050037009e009000704080005e
:102160000080500068004000000f7800f00f200051
:102170009e007800808f50000200360000c0eb0007
:10218000020037001e007800004078000080fa004e
:10219000000006000800fa002007980031079800a8
:1021a000c5ff07000080fb00000f78003e00900094
:1021b0009e0f500002003100be009000010f780019
:1021c0000000eb00100798000900370059ff0700d6
:1021d000ae009000804878002e0090000000e800db
:1021e000200798001e0090000000e80010079800eb
:1021f0001e0090009e0f5000f4ff39001e00780072
:102200000080fa00000006000800fa00200798008d
:1022100031079800c3ff07000080fb00000f780023
:102220003e0090009e0f500002003100be00900062
:10223000010f78000000eb0010079800090037003c
:102240002e00900010407800ae0090008100e80061
:10225000210798004dff07001e0090000000e800d5
:10226000100798001e0090009e0f5000f4ff3900e8
:102270001e0078000080fa00000006000400fa004a
:102280000000eb00000f78008bff0700204798004c
:10229000a4ff0700304798002e4090000080fb000c
:1022a0000000e00003003200e90f5000030032009c
:1022b000040037001e20a000040037001e00a0000c
:1022c000020037001e10a000000000003e409000f9
:1022d0000080fb000000e00003003200e90f500026
:1022e00003003200040037001e30a0000200370057
:1022f0001e40a000000000001e0078000080fa00d0
:10230000000006000400fa001007980061408000f9
:102310001e009000008f4000020037009e007800f1
:10232000698f5000c0b720009e007800808f500059
:10233000faff3e001e007800104078000080fa008e
:10234000000006000000fa005bff07000080fb00b1
:102350000000e9004f00de00004078000080fa0035
:10236000000006000000fa006eff07000080fb007e
:102370000000e9004f00de00004078000080fa0015
:10238000000006000000fa00901180000080fa00b2
:10239000000006000000fa0062ff07000004e000f1
:1023a0000f0032008140800070408000808f50001c
:1023b000050036008040800080007800704080007a
:1023c00000805000070037008040800080007800c7
:1023d000704080000080500069004000010037001c
:1023e0000000eb000080fa00000006000000fa0088
:1023f00031ff07000004e0000f0032006140800060
:1024000050408000808f5000050036006040800002
:1024100080007800504080000080500007003700a6
:1024200060408000800078005040800000805000b4
:1024300069004000010037000000eb000080fa0056
:10244000000006000000fa0031e2a8003342a800b4
:102450000080fa00000006000000fa0031e2a90046
:102460003342a9000080fa00000006000000fa00d4
:10247000b50207005000200060498800a00020003d
:102480007049880003003700000000000100370099
:1024900000000000a0518000610060000000e0002a
:1024a00004003a002868ef00a05180003040880006
:1024b0000200370010c0b30028e8b70028c8bf00ea
:1024c0000004a2000004e0000400320040a3200049
:1024d000104078000080fb003040880030408000d1
:1024e000a054880080a22000104078000080fb00eb
:1024f000b0548800c0a42000104078000080fb0089
:10250000c054880040a62000104078000080fb00e6
:10251000d054880000a72000104078000080fb0005
:10252000e0548800c0a72000104078000080fb0025
:10253000f054880080a52000104078000080fb0047
:102540000055880080a82000104078000080fb0023
:102550001055880028c8bf000004e000caff320000
:10256000b1548000f01f2000808f500001003e0019
:102570000628a800b1548000803e2000808f5000c3
:10258000010036000628a8000255800011c0b300e3
:10259000f01f2000800f5100010036008040eb004a
:1025a000b354800010c0b30002202000828f51007d
:1025b00001003e000040eb0000c060000004e000ad
:1025c000010032000668a8000155800000002100cb
:1025d000808f5000010036000628a90012558000a7
:1025e00011c0b300f01f2000800f51000100360021
:1025f0008040eb000355800010c0b3000220200093
:10260000828f510001003e000040eb0000c06000de
:102610000004e0000100320006e8a8000155800037
:1026200000002100808f50000100360006e8a9005c
:10263000c254800011c0b300f01f2000800f510071
:10264000010036008040eb00b354800010c0b3009e
:1026500002202000828f510001003e000040eb006c
:1026600000c060000004e000010032000648a8003d
:10267000c154800000002100808f5000010036000e
:102680000648a900d254800011c0b300f01f2000fa
:10269000800f5100010036008040eb00c3548000e1
:1026a00010c0b30002202000828f510001003e00c4
:1026b0000040eb0000c060000004e00001003200b8
:1026c0000688a800d154800000002100808f5000af
:1026d000010036000688a900e254800011c0b30052
:1026e000f01f2000800f5100010036008040eb00f9
:1026f000c354800010c0b30002202000828f51001c
:1027000001003e000040eb0000c060000004e0005b
:102710000100320006a8a800e1548000000021005a
:10272000808f50000100360006a8a900f2548000f6
:1027300011c0b300f01f2000800f510001003600cf
:102740008040eb00c354800010c0b3000220200082
:10275000828f510001003e000040eb0000c060008d
:102760000004e0000100320006c8a800f154800017
:1027700000002100808f500045ff360006c8a900e8
:0427800044ff3700db
:020000040000fa
:102784008c0c00000200000000000000360800006d
:1027940002000000000000006c0c0000200000009b
:1027a40000000000380800000200000002000000e1
:1027b400ffff00007c0b0000f0000000020000009e
:1027c4004a0a78000af00a000e0b38000b520b007c
:1027d400700c8e000cac0c00ca0ce8000c060d004a
:1027e4005c0d76000d900d00aa0dc4000dde0d00e9
:1027f400300e000000000000000000000000000097
:1028040000000000000000000000000000000000c4
:1028140000000000000000000000000000000000b4
:1028240000000000000000000000000000000000a4
:102834000000000000000000000000000000000094
:102844000000000000000000000000000000000084
:102854000000000000000000000000000000000074
:102864000000000000000000000000000000000064
:102874000000000000000000000000000000000054
:102884000000000000000000000000000000000044
:102894000000000000000000000000000000000034
:1028a4000000000000000000000000000000000024
:1028b4000000000000000000000000000000000014
:1028c4000000000000000000000000000000000004
:1028d40000000000000000000000000000000000f4
:1028e40000000000000000000000000000000000e4
:1028f40000000000000000000000000000000000d4
:102904003c08000040030000000000000008000034
:1029140020000000000000003a080000020000004f
:1029240002000000010000008e0c00000200000004
:102934000000000030080000060000000200000053
:102944000100010000010000200800000800000050
:10295400000000002808000008000000000000003b
:04296400000000006f
:020000040000fa
:102968000000fa000021ef00300e20001008880057
:102978000003280020088800b04180000000e00023
:1029880002003a00e0502100250007008460a900f9
:102998009460a800c0c820008040eb00014878007f
:1029a80011e1a8000080fa00000006000200fa0009
:1029b800000f78009e00780011088800c0c8200029
:1029c8008040eb00014878000080fa000000060013
:1029d8000000fa00100880000080fa0000000600dd
:1029e8000200fa00000f78009e00780001088800b5
:1029f800c0c820008040eb00014878000080fa0041
:102a0800000006000000fa00000880000080fa00bc
:102a1800000006000000fa000080fa00000006002e
:102a28000200fa00000f78009460a9009e00780068
:102a3800b14188009460a8000080fa0000000600f8
:102a48000000fa00c0c820008040eb000148780070
:102a58009460a80005e1a8000080fa0000000600c4
:102a68000000fa0005e1a9009460a9000080fa00be
:102a7800000006000200fa00c0c82000104f7800cd
:102a88001e4078000004e00003003200c0c82000a7
:102a98008040eb00014878001e4078000080fa0072
:102aa800000006000000fa00d0c82000104078009e
:102ab8000080fb000080fa00000006000000fa0019
:102ac800d0c820008040eb00014878000080fa0060
:102ad800000006000000fa000621ef00300d230078
:102ae80060088800000628008008880030418000bf
:102af8000000e00002003a00805c21002500070089
:102b080084e0a90094e0a800e0c820008040eb0021
:102b18000148780011e1a8000080fa0000000600d2
:102b28000200fa00000f78009e0078006108880013
:102b3800e0c820008040eb00014878000080fa00df
:102b4800000006000000fa00600880000080fa001b
:102b5800000006000200fa00000f78009e007800ce
:102b680031088800e0c820008040eb000148780068
:102b78000080fa00000006000000fa00300880001b
:102b88000080fa00000006000000fa000080fa0049
:102b9800000006000200fa00000f780094e0a90087
:102ba8009e0078003141880094e0a8000080fa0077
:102bb800000006000000fa00e0c820008040eb009a
:102bc8000148780094e0a80011e1a8000080fa000c
:102bd800000006000000fa0011e1a90094e0a90035
:102be8000080fa00000006000200fa00e0c8200099
:102bf800104f78001e4078000004e0000300320007
:102c0800e0c820008040eb00014878001e407800b2
:102c18000080fa00000006000000fa00f0c820005a
:102c2800104078000080fb000080fa0000000600d9
:102c38000000fa00f0c820008040eb00014878004e
:102c48000080fa00000006000000fa0043c7bf0039
:102c58008080fb00800f200000816000800720003a
:102c6800a109200033742000804978008149780048
:102c780082497800103a80004c00de00e74060008e
:102c8800103a80004800de006740600080cf5000a6
:102c98001300320042c7bf000081fb00600420001f
:102ca800710520002374200080497800814978004c
:102cb8008249780000000000103a8000610060003e
:102cc8000000e000fcff3a0000000000113a80001c
:102cd80000022000008060000000e000fbff3200de
:102ce80000002300203a88004827ef007027ef00f3
:102cf8007227ef007427ef001200200080072000e1
:102d0800a1092000337420008049780081497800a7
:102d1800824978001200200060042000710520001c
:102d2800237420008049780081497800824978001e
:102d38000080fa00000006000000fa00c422ef003c
:102d48000000250060168800c022ef0010cf2a007e
:102d5800401688006820ef006a20ef00c622ef00c6
:102d6800ce22ef0070e3210060198800113a80003c
:102d7800f00b200000816000600420007105200035
:102d880023742000804978008149780082497800be
:102d98006136800000fe2f00008060005000b30004
:102da800603688003135800000fe2f00008060000a
:102db800d000b300303588007136800000fe2f0047
:102dc800008060003000b300703688002135800034
:102dd80000fe2f0000806000f000b300203588005e
:102de800103a8000000178000260a0006004200012
:102df80071052000237420008049780081497800fb
:102e0800824978000080fa00000006000800fa00f5
:102e180020079800310798000080eb00000f780029
:102e2800130037002e009000904078001e007800b4
:102e38000040780000c06800204798002e009000ed
:102e48000000e800200798001e0078004800de0017
:102e5800000f78002e4090000080fb0080004000aa
:102e6800007d280000804000100078001e0f6800d8
:102e78003e00900000f0a7000000ea000000ea0011
:102e88004f00de0000407800be0090008100e9009d
:102e9800310798000004e000e2ff3a001e007800c5
:102ea8000080fa00000006000000fa0021068000f9
:102eb800f08f2f00008060000080a00020068800ae
:102ec80091058000f0ff28000080600000c0a0008d
:102ed8009005880091058000f08f2f000080600029
:102ee8000080a0009005880021058000f0ff2800e0
:102ef8000080600000c0a000200588002106800036
:102f0800f0f82f00008060000040a0002006880034
:102f18005105800080ff2f00008060000000a000a5
:102f28005005880041058000f0ff280000806000ff
:102f380000c0a000400588000080fa0000000600dc
:102f48000000fa007cff0700d7ff07003eff0700dc
:102f5800d5ff0700120007000ff90700ddfe070084
:102f68007ffe07001d0007007dfe07000080fa00b5
:102f780000000600000f78009e007800c14188001c
:102f8800ffff37000000fa00c0c620008007780065
:102f980040c82000000188000080fa0000000600f8
:102fa8000000fa0080002000001188002222ef00b3
:102fb800001a2000401188009560a80021e2a800ae
:102fc8002342a8000080fa00000006000000fa0072
:102fd8001dff07000080fa00000006000000fa004c
:082fe8000080fa000000060061
:020000040000fa
:020000040001f9
:0457f8001f79000015
:020000040000fa
:020000040001f9
:0457fc00fd3d00006f
:00000001FF
