:020000040000fa
:080000000002040000000000f2
:020000040000fa
:040008005804000098
:020000040000fa
:04000c003e030000af
:020000040000fa
:040010005003000099
:020000040000fa
:04001400460300009f
:020000040000fa
:040018005803000089
:020000040000fa
:04001c005804000084
:020000040000fa
:040020005804000080
:020000040000fa
:04002400580400007c
:020000040000fa
:040028006003000071
:020000040000fa
:04002c005804000074
:020000040000fa
:040030005804000070
:020000040000fa
:0400340020030000a5
:020000040000fa
:040038005804000068
:020000040000fa
:04003c005804000064
:020000040000fa
:040040005804000060
:020000040000fa
:04004400580400005c
:020000040000fa
:040048005804000058
:020000040000fa
:04004c005804000054
:020000040000fa
:040050005804000050
:020000040000fa
:040054009c03000009
:020000040000fa
:040058007e03000023
:020000040000fa
:04005c005804000044
:020000040000fa
:040060005804000040
:020000040000fa
:04006400580400003c
:020000040000fa
:040068005804000038
:020000040000fa
:04006c005804000034
:020000040000fa
:040070005804000030
:020000040000fa
:04007400580400002c
:020000040000fa
:040078005804000028
:020000040000fa
:04007c005804000024
:020000040000fa
:040080005804000020
:020000040000fa
:04008400580400001c
:020000040000fa
:040088005804000018
:020000040000fa
:04008c005804000014
:020000040000fa
:040090005804000010
:020000040000fa
:04009400580400000c
:020000040000fa
:040098005804000008
:020000040000fa
:04009c005804000004
:020000040000fa
:0400a0001004000048
:020000040000fa
:0400a400d003000085
:020000040000fa
:0400a80058040000f8
:020000040000fa
:0400ac0058040000f4
:020000040000fa
:0400b00058040000f0
:020000040000fa
:0400b40058040000ec
:020000040000fa
:0400b80058040000e8
:020000040000fa
:0400bc0058040000e4
:020000040000fa
:0400c00058040000e0
:020000040000fa
:0400c40058040000dc
:020000040000fa
:0400c80058040000d8
:020000040000fa
:0400cc0058040000d4
:020000040000fa
:0400d00058040000d0
:020000040000fa
:0400d40058040000cc
:020000040000fa
:0400d80058040000c8
:020000040000fa
:0400dc0058040000c4
:020000040000fa
:0400e00058040000c0
:020000040000fa
:0400e40058040000bc
:020000040000fa
:0400e80058040000b8
:020000040000fa
:0400ec0058040000b4
:020000040000fa
:0400f00058040000b0
:020000040000fa
:0400f40058040000ac
:020000040000fa
:0400f80058040000a8
:020000040000fa
:0400fc0058040000a4
:020000040000fa
:04010000580400009f
:020000040000fa
:04010400580400009b
:020000040000fa
:040108005804000097
:020000040000fa
:04010c005804000093
:020000040000fa
:04011000580400008f
:020000040000fa
:04011400580400008b
:020000040000fa
:040118005804000087
:020000040000fa
:04011c005804000083
:020000040000fa
:04012000580400007f
:020000040000fa
:04012400580400007b
:020000040000fa
:040128005804000077
:020000040000fa
:04012c00ba03000012
:020000040000fa
:040130004204000085
:020000040000fa
:04013400580400006b
:020000040000fa
:040138005804000067
:020000040000fa
:04013c005804000063
:020000040000fa
:04014000580400005f
:020000040000fa
:04014400580400005b
:020000040000fa
:040148005804000057
:020000040000fa
:040208005804000096
:020000040000fa
:04020c005804000092
:020000040000fa
:04021000580400008e
:020000040000fa
:04021400580400008a
:020000040000fa
:040218005804000086
:020000040000fa
:04021c005804000082
:020000040000fa
:04022000580400007e
:020000040000fa
:04022400580400007a
:020000040000fa
:040228005804000076
:020000040000fa
:04022c005804000072
:020000040000fa
:04023000580400006e
:020000040000fa
:04023400580400006a
:020000040000fa
:040238005804000066
:020000040000fa
:04023c005804000062
:020000040000fa
:04024000580400005e
:020000040000fa
:04024400580400005a
:020000040000fa
:040248005804000056
:020000040000fa
:04024c005804000052
:020000040000fa
:04025000580400004e
:020000040000fa
:04025400580400004a
:020000040000fa
:040258005804000046
:020000040000fa
:04025c005804000042
:020000040000fa
:04026000580400003e
:020000040000fa
:04026400580400003a
:020000040000fa
:040268005804000036
:020000040000fa
:04026c005804000032
:020000040000fa
:04027000580400002e
:020000040000fa
:04027400580400002a
:020000040000fa
:040278005804000026
:020000040000fa
:04027c005804000022
:020000040000fa
:04028000580400001e
:020000040000fa
:04028400580400001a
:020000040000fa
:040288005804000016
:020000040000fa
:04028c005804000012
:020000040000fa
:04029000580400000e
:020000040000fa
:04029400580400000a
:020000040000fa
:040298005804000006
:020000040000fa
:04029c005804000002
:020000040000fa
:0402a00058040000fe
:020000040000fa
:0402a40058040000fa
:020000040000fa
:0402a80058040000f6
:020000040000fa
:0402ac0058040000f2
:020000040000fa
:0402b00058040000ee
:020000040000fa
:0402b40058040000ea
:020000040000fa
:0402b80058040000e6
:020000040000fa
:0402bc0058040000e2
:020000040000fa
:0402c00058040000de
:020000040000fa
:0402c40058040000da
:020000040000fa
:0402c80058040000d6
:020000040000fa
:0402cc0058040000d2
:020000040000fa
:0402d00058040000ce
:020000040000fa
:0402d40058040000ca
:020000040000fa
:0402d80058040000c6
:020000040000fa
:0402dc0058040000c2
:020000040000fa
:0402e00058040000be
:020000040000fa
:0402e40058040000ba
:020000040000fa
:0402e80058040000b6
:020000040000fa
:0402ec0058040000b2
:020000040000fa
:0402f00058040000ae
:020000040000fa
:0402f40058040000aa
:020000040000fa
:0402f80058040000a6
:020000040000fa
:0402fc0058040000a2
:020000040000fa
:04030000580400009d
:020000040000fa
:040304005804000099
:020000040000fa
:040308005804000095
:020000040000fa
:04030c005804000091
:020000040000fa
:04031000580400008d
:020000040000fa
:040314005804000089
:020000040000fa
:040318005804000085
:020000040000fa
:04031c005804000081
:020000040000fa
:04032000580400007d
:020000040000fa
:040324005804000079
:020000040000fa
:040328005804000075
:020000040000fa
:04032c005804000071
:020000040000fa
:04033000580400006d
:020000040000fa
:040334005804000069
:020000040000fa
:040338005804000065
:020000040000fa
:04033c005804000061
:020000040000fa
:04034000580400005d
:020000040000fa
:040344005804000059
:020000040000fa
:040348005804000055
:020000040000fa
:10040000cfc820000e7f22000e01880000000000ef
:10041000000020000000e000020032000001200087
:100420002002880014000700230107000000e000fc
:1004300003003a00c015210001002000020037002f
:100440000000200001002000810f70000100320038
:1004500014000700000020000000e000020032004d
:100460000000020000000000e21302000000000093
:100470000040da000000fe004440a90000202000f7
:100480000000e0000300320000002000a00188000e
:100490004440a800000006008a1f78008b1f7800e7
:1004a0000000060091018800800478000000eb0045
:1004b0001a003700e284440032a0b4009905ba0063
:1004c000e284440032a0b4009906ba00e2844400f9
:1004d00032a0b4000006eb00476fde00fd07b2005b
:1004e000636ce10003003a00ebff07000000eb0043
:1004f0000a003700606ce10004003a00005deb0088
:100500008b05e900fdff3e00040037006168e10053
:10051000010032000086eb000b00070019c7ba008b
:100520001905ba000e04e00003003a000a00e000da
:10053000e0ff3a0000000600fe07b2009e018800be
:100540008a047800f5ff3700395dba008b05e900b1
:100550000c003200295dba008b05e900080032006a
:100560000c00e00003003a00e284440032a0b40032
:10057000f5ff370019ddba008b05e900faff3a00f4
:100580008904e800e184440032a0b40000000600c1
:10059000000000000000000000000000000000005b
:1005a000000000000000000000000000000000004b
:1005b000000000000000000000000000000000003b
:1005c000000000000000000000000000000000002b
:1005d000000000000000000000000000000000001b
:1005e000000000000000000000000000000000000b
:1005f00000000000000000000000000000000000fb
:1006000000000000000000000000000000000000ea
:1006100000000000000000000000000000000000da
:1006200000000000000000000000000000000000ca
:1006300000000000000000000000000000000000ba
:10064000809fbe000000fa001628ef00b0c820000e
:10065000104078008040e800b0c8200001487800d1
:10066000a0c8200011c0b300014878008460a90030
:100670000080fa004f00be00004006003600f8007f
:100680008020a9000000eb00cf0807003600f8002a
:10069000d10807008040a90010002000ca08070008
:1006a0003600f8008060a90020002000c60807007e
:1006b0003600f8008080a90030002000c208070042
:1006c0003600f800809fbe00829fbe00849fbe005f
:1006d000869fbe000000fa00d00807008400a90031
:1006e0000080fa004f03be004f02be004f01be0063
:1006f0004f00be003600f900004006003600f8004a
:10070000809fbe00829fbe00849fbe00869fbe0069
:100710000000fa0020418000000001000080fa0083
:100720004f03be004f02be004f01be004f00be008f
:100730003600f900004006003600f800809fbe0039
:10074000829fbe00849fbe00869fbe000000fa000c
:1007500030418000000001000080fa004f03be001d
:100760004f02be004f01be004f00be003600f90030
:1007700000400600801f78000000fa001011800081
:10078000620060000000e000010032002222a900a7
:100790008c20a9000080fa004f007800004006007d
:1007a000809fbe000000fa0010168000610060000b
:1007b00000f0a7000000ea000000e9004f00de00a2
:1007c000004078000080fb0061006000111680008e
:1007d0000100a10001007000101688009040800008
:1007e0000000e8009040880014c8bf000040e90005
:1007f00014e8b70014c8bf000004e0000400320091
:1008000090408000104078000080fb00a01188001c
:1008100087e0a9000080fa004f00be0000400600fb
:100820003600f800809fbe00829fbe00849fbe00fd
:10083000869fbe000000fa000021ef00b01180008a
:100840000040780019e8b700c202a800b04080005c
:100850008000400000b620000080400010007800ba
:100860000000010087c0a9000080fa004f03be000d
:100870004f02be004f01be004f00be003600f9001f
:1008800000400600801f78000000fa0090118000f0
:10089000620060000000e000010032003222a90086
:1008a0008c40a9000080fa004f007800004006004c
:0c08b0000040da000000fe00000005001f
:020000040000fa
:1008bc0000000000c1c0000081c100004001000028
:1008cc0001c30000c00300008002000041c2000010
:1008dc0001c60000c00600008007000041c70000f0
:1008ec0000050000c1c5000081c4000040040000e8
:1008fc0001cc0000c00c0000800d000041cd0000b8
:10090c00000f0000c1cf000081ce0000400e00009f
:10091c00000a0000c1ca000081cb0000400b00009f
:10092c0001c90000c00900008008000041c8000097
:10093c0001d80000c01800008019000041d9000047
:10094c00001b0000c1db000081da0000401a00002f
:10095c00001e0000c1de000081df0000401f00000f
:10096c0001dd0000c01d0000801c000041dc000007
:10097c0000140000c1d4000081d500004015000017
:10098c0001d70000c01700008016000041d60000ff
:10099c0001d20000c01200008013000041d30000ff
:1009ac0000110000c1d1000081d0000040100000f7
:1009bc0001f00000c03000008031000041f1000067
:1009cc0000330000c1f3000081f20000403200004f
:1009dc0000360000c1f6000081f70000403700002f
:1009ec0001f50000c03500008034000041f4000027
:1009fc00003c0000c1fc000081fd0000403d0000f7
:100a0c0001ff0000c03f0000803e000041fe0000de
:100a1c0001fa0000c03a0000803b000041fb0000de
:100a2c0000390000c1f9000081f8000040380000d6
:100a3c0000280000c1e8000081e900004029000006
:100a4c0001eb0000c02b0000802a000041ea0000ee
:100a5c0001ee0000c02e0000802f000041ef0000ce
:100a6c00002d0000c1ed000081ec0000402c0000c6
:100a7c0001e40000c02400008025000041e50000d6
:100a8c0000270000c1e7000081e6000040260000be
:100a9c0000220000c1e2000081e3000040230000be
:100aac0001e10000c02100008020000041e00000b6
:100abc0001a00000c06000008061000041a10000a6
:100acc0000630000c1a3000081a20000406200008e
:100adc0000660000c1a6000081a70000406700006e
:100aec0001a50000c06500008064000041a4000066
:100afc00006c0000c1ac000081ad0000406d000036
:100b0c0001af0000c06f0000806e000041ae00001d
:100b1c0001aa0000c06a0000806b000041ab00001d
:100b2c0000690000c1a9000081a800004068000015
:100b3c0000780000c1b8000081b9000040790000c5
:100b4c0001bb0000c07b0000807a000041ba0000ad
:100b5c0001be0000c07e0000807f000041bf00008d
:100b6c00007d0000c1bd000081bc0000407c000085
:100b7c0001b40000c07400008075000041b5000095
:100b8c0000770000c1b7000081b60000407600007d
:100b9c0000720000c1b2000081b30000407300007d
:100bac0001b10000c07100008070000041b0000075
:100bbc0000500000c19000008191000040510000e5
:100bcc0001930000c05300008052000041920000cd
:100bdc0001960000c05600008057000041970000ad
:100bec0000550000c19500008194000040540000a5
:100bfc00019c0000c05c0000805d0000419d000075
:100c0c00005f0000c19f0000819e0000405e00005c
:100c1c00005a0000c19a0000819b0000405b00005c
:100c2c0001990000c0590000805800004198000054
:100c3c0001880000c0480000804900004189000084
:100c4c00004b0000c18b0000818a0000404a00006c
:100c5c00004e0000c18e0000818f0000404f00004c
:100c6c00018d0000c04d0000804c0000418c000044
:100c7c0000440000c1840000818500004045000054
:100c8c0001870000c047000080460000418600003c
:100c9c0001820000c042000080430000418300003c
:100cac0000410000c1810000818000004040000034
:020000040000fa
:100cbc000000fa0097e0a90097c0a900800020006e
:100ccc00801188003222ef00001a2000c011880029
:100cdc0097c0a80031e2a8003342a80087e0a90021
:100cec0097e0a8000080fa00000006000200fa005d
:100cfc00000f78001e007800d04088000080fa00b9
:100d0c00000006000000fa00714080006040800086
:100d1c00808f500002003a0097e0a90019003700bc
:100d2c0087e0a900100037007040800090407800e8
:100d3c008180fb00a11188000000e8007040880051
:100d4c007140800070b52000808f500002003a0086
:100d5c00e0b420007040880071408000604080004a
:100d6c00808f50000600320091118000002020007e
:100d7c00008060000000e000ebff32000100370053
:100d8c00000000000080fa00000006000200fa00db
:100d9c00000f78001e007800e04088000080fa0008
:100dac00000006000000fa009181200091407800bc
:100dbc0006c8bf0080cf50000d003a001868ef0045
:100dcc0018c8bf008080fb009381200093417800fd
:100ddc0062a8200003f178000040e80018e8b70092
:100dec0010002000b0408800c202a90002003700a9
:100dfc0020012000b04088000080fa0000000600ae
:100e0c000000fa0018c8bf008080fb00938120000e
:100e1c009341780062a8200003f178000040e800bc
:100e2c0018e8b70019c8bf000080fb00e40f5000a1
:100e3c001b003200e40f500007003c00e20f500092
:100e4c0011003200e20f500012003c00e10f500084
:100e5c000a00320021003700e60f50001600320065
:100e6c00e60f500011003500ef0f50001500320056
:100e7c00f00f500016003200180037002000200040
:100e8c00b04088001800370020002000b0408800d7
:100e9c001500370020002000b040880012003700f9
:100eac0020002000b04088000f00370060002000b8
:100ebc00b04088000c003700c0002000b040880013
:100ecc000900370020012000b040880006003700e0
:100edc0020012000b04088000300370020012000d2
:100eec00b0408800000000000080fa0000000600fe
:100efc000000fa0018c8bf008080fb00938120001e
:100f0c009341780062a8200003f178000040e800cb
:100f1c0018e8b70030002000b040880010c0b300c3
:100f2c002ce8b7000080fa00000006000000fa0070
:100f3c0018c8bf008080fb0093812000934178008b
:100f4c0062a8200003f178000040e80018e8b70020
:100f5c0080a82000904078002cc8bf0080cf5000a3
:100f6c0002003a0040002000b04088002cc8bf00ae
:100f7c000040e8002ce8b7000080fa0000000600f2
:100f8c000000fa0018c8bf008080fb00938120008d
:100f9c009341780062a8200003f178000040e8003b
:100fac0018e8b70050002000b04088000080fa001c
:100fbc00000006000000fa0018c8bf008080fb008b
:100fcc00938120009341780062a8200003f17800ff
:100fdc000040e80018e8b70020012000b04088006d
:100fec0018c8bf000080fb008000780060a82000bb
:100ffc00250607000000e0007b003a001016800078
:10100c006100600000f0a7000000ea000000e900a9
:10101c004f00de00004078000080fb0061006000a3
:10102c00111680000100a10001007000101688004c
:10103c0010c0b3002ce8b7006600370070a8200081
:10104c00104078000080fb00e20f50001f003200bf
:10105c00e20f500003003c00e10f5000060032008c
:10106c0059003700e30f50002d003200e40f500000
:10107c00400032005400370060a820001040780077
:10108c000080fb00c1822000914078008181fb0030
:10109c00c1822000914078008180fb008180e800b3
:1010ac0062a82000e2c078000181fb006600b90054
:1010bc000000780003004000800040006099200090
:1010cc0000804000020878003f00370060a8200034
:1010dc00104078000080fb00c18220009140780015
:1010ec008181fb00c1822000914078008180fb004f
:1010fc008180e80062a82000e2c078000181fb003a
:10110c006600b90000007800030040008000400039
:10111c00e0a0200000804000020878002a00370080
:10112c0060a82000104078000080fb00c1822000e5
:10113c00914078008181fb00c182200091407800b1
:10114c008180fb008180e80062a82000e2c078006a
:10115c000181fb006600b90000007800030040002c
:10116c0080004000e09120000080400002087800e0
:10117c001500370060a82000104078000080fb00ac
:10118c00c1822000914078008181fb00c182200047
:10119c00914078008180fb008180e80062a82000eb
:1011ac00e2c078000181fb006600b9000000780005
:1011bc000300400080004000e091200000804000cf
:1011cc0002087800000000002cc8bf000040e800b6
:1011dc002ce8b70070a82000904078002cc8bf0005
:1011ec0080cf500095ff32000080fa00000006000e
:1011fc000000fa0018c8bf008080fb00938120001b
:10120c009341780062a8200003f178000040e800c8
:10121c0018e8b70019c8bf0001e8b700700020003b
:10122c00b04088000080fa00000006000000fa00c0
:10123c0018c8bf008080fb00938120009341780088
:10124c0062a8200003f178000040e80018e8b7001d
:10125c0019c8bf0000e8b70080002000b04088002b
:10126c000080fa00000006000000fa0018c8bf0059
:10127c008080fb00938120009341780062a82000bd
:10128c0003f178000040e80018e8b70019c8bf0067
:10129c0003e8b70090002000b04088000080fa00fe
:1012ac00000006000000fa0018c8bf008080fb0098
:1012bc00938120009341780062a8200003f178000c
:1012cc000040e80018e8b70019c8bf0002e8b700f2
:1012dc00a0002000b04088000080fa00000006004a
:1012ec000000fa0018c8bf008080fb00938120002a
:1012fc009341780062a8200003f178000040e800d8
:10130c0018e8b70019c8bf0005e8b700b000200006
:10131c00b04088000080fa00000006000000fa00cf
:10132c0018c8bf008080fb00938120009341780097
:10133c0062a8200003f178000040e80018e8b7002c
:10134c0019c8bf0004e8b70020012000b040880095
:10135c0018c8bf000080fb008000780060a8200047
:10136c00490507000000e00015003a0010c0b3006a
:10137c0007e8b7002c68ef000e0037002cc8bf0040
:10138c000080fb0061a82000e14078002cc8bf0061
:10139c000080fb00a2ae20006240780080cf50009d
:1013ac00010032000768ef002cc8bf000040e800c5
:1013bc002ce8b7002cc8bf00e74f5000efff3200fd
:1013cc000080fa00000006000000fa0018c8bf00f8
:1013dc008080fb00938120009341780062a820005c
:1013ec0003f178000040e80018e8b700d0002000b6
:1013fc00b04088000080fa00000006000000fa00ef
:10140c0018c8bf008080fb009381200093417800b6
:10141c0062a8200003f178000040e80018e8b7004b
:10142c00e0002000b04088000080fa0000000600b8
:10143c000000fa0018c8bf008080fb0093812000d8
:10144c009341780062a8200003f178000040e80086
:10145c0018e8b700f0002000b04088000080fa00c7
:10146c00000006000000fa0018c8bf008080fb00d6
:10147c00938120009341780062a8200003f178004a
:10148c000040e80018e8b70000012000b0408800d8
:10149c000080fa00000006000000fa0018c8bf0027
:1014ac008080fb00938120009341780062a820008b
:1014bc0003f178000040e80018e8b70010012000a4
:1014cc00b04088000080fa00000006000000fa001e
:1014dc0018c8bf008080fb009381200093417800e6
:1014ec0062a8200003f178000040e80018e8b7007b
:1014fc0020012000b040880018c8bf000080fb000d
:10150c008000780060a82000df0407000000e000e5
:10151c0015003a0010c0b30007e8b7002c68ef00c4
:10152c000e0037002cc8bf000080fb0061a8200013
:10153c00e14078002cc8bf000080fb00a2ae200068
:10154c006240780080cf5000010032000768ef0045
:10155c002cc8bf000040e8002ce8b7002cc8bf0026
:10156c00e74f5000efff32000080fa000000060049
:10157c000000fa000080fa00000006000000fa00eb
:10158c000080fa00000006000a00fa0040479800ac
:10159c00514798003207980043079800be0090000e
:1015ac00010f7800ce00900011079800a0ae20002b
:1015bc00ce40900001487800b0ae2000de40900094
:1015cc00014878009e409000c0ae20000148780091
:1015dc009e407800d0ae200001487800be409000bc
:1015ec00e0ae200001487800ae409000f0ae200044
:1015fc000148780061002000a0ae2000a204070082
:10160c0020408800418020009140780000af2000ed
:10161c0001487800518020009140780010af2000e4
:10162c000148780080c0b30014e8b700a0ae2000d9
:10163c009040880090408000104078000080fb00b3
:10164c00a01188000080fa00000006000a00fa00d1
:10165c00404798005147980032079800430798007c
:10166c00be009000010f78004e0190001207980008
:10167c00a0ae2000ce40900001487800b0ae200013
:10168c005e419000024878009e409000c0ae200061
:10169c00014878009e407800d0ae200001487800c8
:1016ac00be409000e0ae200001487800ae409000b3
:1016bc00f0ae20000148780061002000a0ae2000b0
:1016cc007104070020408800418020009140780080
:1016dc0000af200001487800518020009140780034
:1016ec0010af20000148780080c0b30014e8b700a8
:1016fc00a0ae2000904088004e41900061802000f8
:10170c008248780090408000104078000080fb00f8
:10171c00a01188000080fa00000006000000fa000a
:10172c001e00370040408000b111800081407800dd
:10173c000148780041408000f0b52000808f5000b7
:10174c0009003200404080008000e80050408000da
:10175c00808f500004003200404080000000e80000
:10176c00404088000d00370041408000f0b520005b
:10177c00808f500007003a005140800070b5200067
:10178c00808f50000300320070b52000404088006c
:10179c000200370010c0b30010e8b70090118000b1
:1017ac00610060000000e000deff3a0087c0a90085
:1017bc000080fa00000006000200fa000040eb0076
:1017cc00004f780000000000514080004040800035
:1017dc00808f5000fcff320050408000104f78008a
:1017ec00504080000000e8005040880051408000cc
:1017fc0000b62000808f500002003a0070b5200027
:10180c00504088001e4078000080fa00000006005e
:10181c000200fa00004f7800000000001c000700d6
:10182c000004a2000004e000fcff3a0060408000cd
:10183c001e487800604080000000e800604088008e
:10184c006140800070b52000808f500002003a008b
:10185c00e0b420006040880097e0a8000080fa0007
:10186c00000006000000fa0051408000404080005b
:10187c000080680000f0a7000000ea000000ea0009
:10188c004f00de00004078000080fa0000000600e7
:10189c000400fa007140800011079800614080003c
:1018ac001e009000808f5000060031009e009000ba
:1018bc0060408000008050000000e900000f7800bc
:1018cc00050037009e0090006040800000805000b2
:1018dc0068004000000f78001e00780000f0a700a0
:1018ec000000ea000000ea004f00de000040780033
:1018fc000080fa00000006000000fa006140800041
:10190c0070408000808f500009003a0091118000d7
:10191c00001020000080600000f0a7000000ea002a
:10192c000000ea004f00de000040780001003700a4
:10193c000040eb000080fa00000006000400fa00f2
:10194c004140800011079800504080009e0090009c
:10195c00808f5000060031009e00900050408000a7
:10196c000080500069004000000f78000400370030
:10197c009e0090005040800000805000000f7800c6
:10198c00f00f20009e007800808f5000020036007f
:10199c0000c0eb00020037001e0078000040780009
:1019ac000080fa00000006000400fa00714080007c
:1019bc0011079800614080001e009000808f50003d
:1019cc00060031009e0090006040800000805000b6
:1019dc000000e900000f7800050037009e00900021
:1019ec00604080000080500068004000000f7800cc
:1019fc00f00f20009e007800808f5000020036000f
:101a0c0000c0eb00020037001e0078000040780098
:101a1c000080fa00000006000800fa002007980079
:101a2c0031079800c5ff07000080fb00000f78000d
:101a3c003e0090009e0f500002003100be0090004e
:101a4c00010f78000000eb00100798000900370028
:101a5c0059ff0700ae009000804878002e009000df
:101a6c000000e800200798001e0090000000e8002d
:101a7c00100798001e0090009e0f5000f4ff3900d4
:101a8c001e0078000080fa00000006000800fa0032
:101a9c002007980031079800c3ff07000080fb0067
:101aac00000f78003e0090009e0f500002003100a5
:101abc00be009000010f78000000eb0010079800aa
:101acc00090037002e00900010407800ae00900006
:101adc008100e800210798004dff07001e009000d0
:101aec000000e800100798001e0090009e0f5000a8
:101afc00f4ff39001e0078000080fa000000060098
:101b0c000400fa000000eb00000f78008bff0700c8
:101b1c0020479800a4ff0700304798002e40900003
:101b2c000080fb000000e00003003200e90f5000d1
:101b3c0003003200040037001e20a0000400370010
:101b4c001e00a000020037001e10a00000000000c4
:101b5c003e4090000080fb000000e00003003200db
:101b6c00e90f500003003200040037001e30a000c3
:101b7c00020037001e40a000000000001e0078008c
:101b8c000080fa00000006000400fa00100798001c
:101b9c00514080001e009000008f40000200370072
:101bac009e007800698f500000b620009e007800df
:101bbc00808f5000faff3e001e0078001040780025
:101bcc000080fa00000006000000fa005bff07002e
:101bdc000080fb000000e9004f00de0000407800b0
:101bec000080fa00000006000000fa006eff0700fb
:101bfc000080fb000000e9004f00de000040780090
:101c0c000080fa00000006000000fa00901180002d
:101c1c000080fa00000006000000fa0062ff0700d6
:101c2c000004e0000f003200714080006040800032
:101c3c00808f5000050036007040800080007800d6
:101c4c00604080000080500007003700704080002a
:101c5c0080007800604080000080500069004000e7
:101c6c00010037000000eb000080fa0000000600c5
:101c7c000000fa0031ff07000004e0000f00320002
:101c8c005140800040408000808f5000050036009d
:101c9c005040800080007800404080000080500060
:101cac0007003700504080008000780040408000e2
:101cbc000080500069004000010037000000eb007c
:101ccc000080fa00000006000000fa0031e2a800d3
:101cdc003342a8000080fa00000006000000fa0061
:101cec0031e2a9003342a9000080fa00000006008e
:101cfc000000fa0080002000001188002222ef0072
:101d0c00001a2000401188009560a800e0f2200025
:101d1c004900070000ed20001800070021e2a80090
:101d2c002342a800a0c72000b0638800a0c72000f1
:101d3c00a063880020c820009063880020c8200081
:101d4c0080638800c06380000010a000c06388001e
:101d5c00c06380000090a000c0638800c063800056
:101d6c000080a100c0638800c06380000000a10057
:101d7c00c06388000080fa00000006000200fa0030
:101d8c00000f78001e007800204188000080fa00c7
:101d9c00000006000000fa00c16380000020200053
:101dac00008060000000e000020032009580a90075
:101dbc001f0037008580a90018003700b063800031
:101dcc00104078000080fb0020118800b063800078
:101ddc000000e800b0638800b163800020c82000d8
:101dec00808f500002003a00a0c72000b06388002a
:101dfc00c06380000080a100c0638800b1638000d4
:101e0c00a0638000808f500004003a00c063800003
:101e1c000090a000c06388000500370011118000fd
:101e2c0000202000008060000000e000e3ff320092
:101e3c000080fa00000006000200fa00000f780093
:101e4c001e007800304188000080fa000000060077
:101e5c000000fa0018003700806380003111800008
:101e6c008140780001487800806380000000e80021
:101e7c008063880081638000a0c82000808f5000a0
:101e8c0002003a0020c8200080638800c0638000f4
:101e9c000010a100c0638800816380009063800003
:101eac00808f500004003a00c06380000000a00046
:101ebc00c0638800040037001011800061006000ce
:101ecc000000e000e4ff3a008560a9000080fa0001
:101edc00000006000200fa000040eb00004f780002
:101eec0090638000104f7800906380000000e80041
:101efc009063880091638000a0c82000808f500000
:101f0c0002003a0020c82000906388009163800092
:101f1c0080638000808f500003003a00c063800013
:101f2c000010a000c0638800c06380000000a10006
:101f3c00c06388001e4078000080fa000000060094
:101f4c000600fa00881f78001007980021079800f7
:101f5c000000eb00000f780009003700c063800020
:101f6c00620060000000e0000a003a001e009000d1
:101f7c001e044000d7ff0700004c78001e0fe8003d
:101f8c002e0090009e007800808f5000f3ff3900e7
:101f9c0001003700000000001e0078004f0478009c
:101fac000080fa00000006000200fa00004f7800e2
:101fbc009580a900a06380001e487800a063800073
:101fcc000000e800a0638800a163800020c8200006
:101fdc00808f500002003a00a0c72000a063880048
:101fec00c06380000090a100c0638800b1638000d2
:101ffc00a0638000808f500003003a00c063800013
:10200c000080a000c06388009580a8000080fa00c2
:10201c00000006000600fa0010079800210798003f
:10202c000000eb00000f78000a003700c16380004d
:10203c0000102000008060000000e0000a003a0060
:10204c001e0090001e004000104078001e0fe8009b
:10205c00d5ff07002e0090009e007800808f500066
:10206c00f2ff390001003700000000001e0078006c
:10207c000080fa00000006000200fa000000eb00ed
:10208c00000f7800c1638000001020000080600009
:10209c000000e000010032001e30a000c16380008f
:1020ac0000202000008060000000e00001003200f1
:1020bc001e40a000c0638000610060000000e000d2
:1020cc00010032001e00a000c063800062006000ae
:1020dc000000e000020032001e20a00001003700ca
:1020ec001e10a0001e0078000080fa000000060000
:1020fc000200fa00000f7800906380009e00400000
:10210c00a0c82000808f500008003600906380002b
:10211c009e004000a0c820000000ea0000804000a3
:10212c0021c82000614078000300370090638000d4
:10213c001e004000104078000080fa0000000600ed
:10214c000000fa00c0638000610060000000e00045
:10215c0011003a009163800080638000808f5000f2
:10216c000600360090638000804078008063800019
:10217c000040780000c050000800370090638000d9
:10218c0080407800806380000040780000c05000e0
:10219c0068404000010037000040eb000080fa006e
:1021ac00000006000000fa00c1638000001020004f
:1021bc00008060000000e00011003a00b163800074
:1021cc00a0638000808f500006003600b063800052
:1021dc0080407800a06380000040780000c0500070
:1021ec0008003700b063800080407800a063800056
:1021fc000040780000c050006840400001003700eb
:10220c000040eb000080fa00000006000000fa001d
:10221c00c06380000000d100614060000080fb00c2
:10222c0000f0a7000000ea000000ea004f00de000a
:10223c00004078000080fa00000006000000fa0060
:10224c00c06380004800de00614060000080fb003d
:10225c0000f0a7000000ea000000ea004f00de00da
:10226c00004078000080fa00000006000000fa0030
:10227c00101180000080fa00000006000000fa0037
:10228c00101180004800de00614060000080fb00ff
:10229c0000f0a7000000ea000000ea004f00de009a
:0c22ac00004078000080fa0000000600ee
:020000040000fa
:1022b8008a0c00000200000000000000280800004e
:1022c8000200000000000000500c00002000000088
:1022d800000000002a0800000200000002000000c0
:1022e800ffff0000700c00001a0000000000000052
:1022f800240800000400000000000000600b00003b
:10230800f000000002000000d8060600077e070063
:102318009c07c60007e00700fe081c00093a0900f0
:102328005809760009940900ea0904000a1e0a00ff
:10233800380a52000a6c0a00be0a000000000000b9
:102348000000000000000000000000000000000085
:102358000000000000000000000000000000000075
:102368000000000000000000000000000000000065
:102378000000000000000000000000000000000055
:102388000000000000000000000000000000000045
:102398000000000000000000000000000000000035
:1023a8000000000000000000000000000000000025
:1023b8000000000000000000000000000000000015
:1023c8000000000000000000000000000000000005
:1023d80000000000000000000000000000000000f5
:1023e80000000000000000000000000000000000e5
:1023f80000000000000000000000000000000000d5
:1024080000000000000000000000000000000000c4
:1024180000000000000000000000000000000000b4
:1024280000000000000000000000000000000000a4
:102438000000000000000000000000000000000094
:1024480000000000000000002e0800003203000019
:1024580000000000000800001e000000000000004e
:102468002c0800000200000002000000010000002b
:102478001e08000006000000000000000000000028
:020000040000fa
:102488000000fa000021ef00300e2000100888003c
:102498000003280020088800404180000000e00078
:1024a80002003a00e0292100250007008460a90005
:1024b8009460a800a0c820008040eb000148780084
:1024c80011e1a8000080fa00000006000200fa00ee
:1024d800000f78009e00780011088800a0c820002e
:1024e8008040eb00014878000080fa0000000600f8
:1024f8000000fa00100880000080fa0000000600c2
:102508000200fa00000f78009e0078000108880099
:10251800a0c820008040eb00014878000080fa0045
:10252800000006000000fa00000880000080fa00a1
:10253800000006000000fa000080fa000000060013
:102548000200fa00000f78009460a9009e0078004d
:10255800414188009460a8000080fa00000006004d
:102568000000fa00a0c820008040eb000148780075
:102578009460a80005e1a8000080fa0000000600a9
:102588000000fa0005e1a9009460a9000080fa00a3
:10259800000006000200fa00a0c82000104f7800d2
:1025a8001e4078000004e00003003200a0c82000ac
:1025b8008040eb00014878001e4078000080fa0057
:1025c800000006000000fa00b0c8200010407800a3
:1025d8000080fb000080fa00000006000000fa00fe
:1025e800b0c820008040eb00014878000080fa0065
:1025f800000006000000fa0043c7bf008080fb000f
:10260800800f20000081600080072000a1092000c1
:102618003374200080497800814978008249780025
:10262800103a80004c00de00e7406000103a80005d
:102638004800de006740600080cf50001300320081
:1026480042c7bf000081fb00600420007105200024
:1026580023742000804978008149780082497800f5
:1026680000000000103a8000610060000000e000f7
:10267800fcff3a0000000000113a80000002200030
:10268800008060000000e000fbff32000000230033
:10269800203a88004827ef007027ef007227ef00e4
:1026a8007427ef001200200080072000a1092000f5
:1026b8003374200080497800814978008249780085
:1026c80012002000600420007105200023742000ff
:1026d8008049780081497800824978000080fa00b2
:1026e800000006000000fa00c422ef0000002500e8
:1026f80060168800c00020000016880000cf2a005d
:10270800401688006820ef006a20ef00c622ef001c
:10271800ce22ef0070e3210060198800113a800092
:10272800f00b20000081600060042000710520008b
:102738002374200080497800814978008249780014
:102748002135800000fe2f0000806000f000b300fb
:10275800203588006136800000fe2f000080600070
:102768005000b300603688003135800000fe2f002d
:1027780000806000d000b3003035880071368000da
:1027880000fe2f00008060003000b3007036880023
:10279800103a8000000178000260a0006004200068
:1027a8007105200023742000804978008149780051
:1027b800824978000080fa00000006000000fa0054
:1027c8008a00070050002000f0488800a000200080
:1027d80000498800130020000001eb0011c0b3007d
:1027e80010c0b30069fb07002028ef002228ef0083
:1027f8000600370000418000114180006100400060
:10280800e0804800004188001141880002418000b2
:1028180013418000f0112a0071002000800f510040
:10282800818f5900f3ff360003f02f0022002000ab
:1028380051c0b30020c0b30085fb0700f040800002
:102848000000e800f04088002028ef002228ef0070
:1028580006003700004180001141800061004000ff
:10286800e080480000418800114188000241800052
:1028780013418000f0112a0071002000800f5100e0
:10288800818f5900f3ff3600d2ff37000800fa00a5
:1028980020079800310798000080eb00000f7800af
:1028a800130037002e009000904078001e0078003a
:1028b8000040780000c06800204798002e00900073
:1028c8000000e800200798001e0078004800de009d
:1028d800000f78002e4090000080fb008000400030
:1028e800e045280000804000100078001e0f6800b6
:1028f8003e00900000f0a7000000ea000000ea0097
:102908004f00de0000407800be0090008100e90022
:10291800310798000004e000e2ff3a001e0078004a
:102928000080fa00000006000000fa00210680007e
:10293800f08f2f00008060000080a0002006880033
:1029480091058000f0ff28000080600000c0a00012
:102958009005880091058000f08f2f0000806000ae
:102968000080a0009005880021058000f0ff280065
:102978000080600000c0a0002005880021068000bb
:10298800f0f82f00008060000040a00020068800ba
:102998005105800080ff2f00008060000000a0002b
:1029a8005005880041058000f0ff28000080600085
:1029b80000c0a000400588000080fa000000060062
:1029c800000f78009e00780051418800ffff370013
:1029d8000000fa0000c520008007780080c62000ab
:1029e800000188000080fa00000006000000fa00dc
:1029f8003cff0700fffe0700cbff0700bdfc0700f8
:102a0800acf80700060007009dfe07000080fa00ea
:102a1800000006000000fa000080fa00000006002e
:102a28000000fa008400a9008200a9000080fa00d2
:102a3800000006000000fa00eefe07000080fa0021
:042a48000000060084
:020000040000fa
:020000040001f9
:0457f8001f79000015
:020000040000fa
:020000040001f9
:0457fc00fd3d00006f
:00000001FF
