:020000040000fa
:080000000002040000000000f2
:020000040000fa
:04000800da03000017
:020000040000fa
:04000c00f2020000fc
:020000040000fa
:0400100004030000e5
:020000040000fa
:04001400fa020000ec
:020000040000fa
:040018000c030000d5
:020000040000fa
:04001c00da03000003
:020000040000fa
:04002000da030000ff
:020000040000fa
:04002400da030000fb
:020000040000fa
:0400280014030000bd
:020000040000fa
:04002c00da030000f3
:020000040000fa
:04003000da030000ef
:020000040000fa
:04003400d4020000f2
:020000040000fa
:04003800da030000e7
:020000040000fa
:04003c00da030000e3
:020000040000fa
:04004000da030000df
:020000040000fa
:04004400da030000db
:020000040000fa
:04004800da030000d7
:020000040000fa
:04004c00da030000d3
:020000040000fa
:04005000da030000cf
:020000040000fa
:040054005003000055
:020000040000fa
:04005800320300006f
:020000040000fa
:04005c00da030000c3
:020000040000fa
:04006000da030000bf
:020000040000fa
:04006400da030000bb
:020000040000fa
:04006800da030000b7
:020000040000fa
:04006c00da030000b3
:020000040000fa
:04007000da030000af
:020000040000fa
:04007400da030000ab
:020000040000fa
:04007800da030000a7
:020000040000fa
:04007c00da030000a3
:020000040000fa
:04008000da0300009f
:020000040000fa
:04008400da0300009b
:020000040000fa
:04008800da03000097
:020000040000fa
:04008c00da03000093
:020000040000fa
:04009000da0300008f
:020000040000fa
:04009400da0300008b
:020000040000fa
:04009800da03000087
:020000040000fa
:04009c00da03000083
:020000040000fa
:0400a000da0300007f
:020000040000fa
:0400a40084030000d1
:020000040000fa
:0400a800da03000077
:020000040000fa
:0400ac00da03000073
:020000040000fa
:0400b000da0300006f
:020000040000fa
:0400b400da0300006b
:020000040000fa
:0400b800da03000067
:020000040000fa
:0400bc00da03000063
:020000040000fa
:0400c000da0300005f
:020000040000fa
:0400c400da0300005b
:020000040000fa
:0400c800da03000057
:020000040000fa
:0400cc00da03000053
:020000040000fa
:0400d000da0300004f
:020000040000fa
:0400d400da0300004b
:020000040000fa
:0400d800da03000047
:020000040000fa
:0400dc00da03000043
:020000040000fa
:0400e000da0300003f
:020000040000fa
:0400e400da0300003b
:020000040000fa
:0400e800da03000037
:020000040000fa
:0400ec00da03000033
:020000040000fa
:0400f000da0300002f
:020000040000fa
:0400f400da0300002b
:020000040000fa
:0400f800da03000027
:020000040000fa
:0400fc00da03000023
:020000040000fa
:04010000da0300001e
:020000040000fa
:04010400da0300001a
:020000040000fa
:04010800da03000016
:020000040000fa
:04010c00da03000012
:020000040000fa
:04011000da0300000e
:020000040000fa
:04011400da0300000a
:020000040000fa
:04011800da03000006
:020000040000fa
:04011c00da03000002
:020000040000fa
:04012000da030000fe
:020000040000fa
:04012400da030000fa
:020000040000fa
:04012800da030000f6
:020000040000fa
:04012c006e0300005e
:020000040000fa
:04013000c403000004
:020000040000fa
:04013400da030000ea
:020000040000fa
:04013800da030000e6
:020000040000fa
:04013c00da030000e2
:020000040000fa
:04014000da030000de
:020000040000fa
:04014400da030000da
:020000040000fa
:04014800da030000d6
:020000040000fa
:04020800da03000015
:020000040000fa
:04020c00da03000011
:020000040000fa
:04021000da0300000d
:020000040000fa
:04021400da03000009
:020000040000fa
:04021800da03000005
:020000040000fa
:04021c00da03000001
:020000040000fa
:04022000da030000fd
:020000040000fa
:04022400da030000f9
:020000040000fa
:04022800da030000f5
:020000040000fa
:04022c00da030000f1
:020000040000fa
:04023000da030000ed
:020000040000fa
:04023400da030000e9
:020000040000fa
:04023800da030000e5
:020000040000fa
:04023c00da030000e1
:020000040000fa
:04024000da030000dd
:020000040000fa
:04024400da030000d9
:020000040000fa
:04024800da030000d5
:020000040000fa
:04024c00da030000d1
:020000040000fa
:04025000da030000cd
:020000040000fa
:04025400da030000c9
:020000040000fa
:04025800da030000c5
:020000040000fa
:04025c00da030000c1
:020000040000fa
:04026000da030000bd
:020000040000fa
:04026400da030000b9
:020000040000fa
:04026800da030000b5
:020000040000fa
:04026c00da030000b1
:020000040000fa
:04027000da030000ad
:020000040000fa
:04027400da030000a9
:020000040000fa
:04027800da030000a5
:020000040000fa
:04027c00da030000a1
:020000040000fa
:04028000da0300009d
:020000040000fa
:04028400da03000099
:020000040000fa
:04028800da03000095
:020000040000fa
:04028c00da03000091
:020000040000fa
:04029000da0300008d
:020000040000fa
:04029400da03000089
:020000040000fa
:04029800da03000085
:020000040000fa
:04029c00da03000081
:020000040000fa
:0402a000da0300007d
:020000040000fa
:0402a400da03000079
:020000040000fa
:0402a800da03000075
:020000040000fa
:0402ac00da03000071
:020000040000fa
:0402b000da0300006d
:020000040000fa
:0402b400da03000069
:020000040000fa
:0402b800da03000065
:020000040000fa
:0402bc00da03000061
:020000040000fa
:0402c000da0300005d
:020000040000fa
:0402c400da03000059
:020000040000fa
:0402c800da03000055
:020000040000fa
:0402cc00da03000051
:020000040000fa
:0402d000da0300004d
:020000040000fa
:0402d400da03000049
:020000040000fa
:0402d800da03000045
:020000040000fa
:0402dc00da03000041
:020000040000fa
:0402e000da0300003d
:020000040000fa
:0402e400da03000039
:020000040000fa
:0402e800da03000035
:020000040000fa
:0402ec00da03000031
:020000040000fa
:0402f000da0300002d
:020000040000fa
:0402f400da03000029
:020000040000fa
:0402f800da03000025
:020000040000fa
:0402fc00da03000021
:020000040000fa
:04030000da0300001c
:020000040000fa
:04030400da03000018
:020000040000fa
:04030800da03000014
:020000040000fa
:04030c00da03000010
:020000040000fa
:04031000da0300000c
:020000040000fa
:04031400da03000008
:020000040000fa
:04031800da03000004
:020000040000fa
:04031c00da03000000
:020000040000fa
:04032000da030000fc
:020000040000fa
:04032400da030000f8
:020000040000fa
:04032800da030000f4
:020000040000fa
:04032c00da030000f0
:020000040000fa
:04033000da030000ec
:020000040000fa
:04033400da030000e8
:020000040000fa
:04033800da030000e4
:020000040000fa
:04033c00da030000e0
:020000040000fa
:04034000da030000dc
:020000040000fa
:04034400da030000d8
:020000040000fa
:04034800da030000d4
:020000040000fa
:10040000cf9620000e7f22000e0188000000000021
:10041000000020000000e000020032000001200087
:100420002002880014000700e40007000000e0003c
:1004300003003a00e0ed2000010020000200370038
:100440000000200001002000810f70000100320038
:1004500014000700000020000000e000020032004d
:100460000000020000000000dc0c020000000000a0
:100470000040da000000fe004440a90000202000f7
:100480000000e0000300320000002000a00188000e
:100490004440a800000006008a1f78008b1f7800e7
:1004a0000000060091018800800478000000eb0045
:1004b0001a003700e284440032a0b4009905ba0063
:1004c000e284440032a0b4009906ba00e2844400f9
:1004d00032a0b4000006eb00476fde00fd07b2005b
:1004e000636ce10003003a00ebff07000000eb0043
:1004f0000a003700606ce10004003a00005deb0088
:100500008b05e900fdff3e00040037006168e10053
:10051000010032000086eb000b00070019c7ba008b
:100520001905ba000e04e00003003a000a00e000da
:10053000e0ff3a0000000600fe07b2009e018800be
:100540008a047800f5ff3700395dba008b05e900b1
:100550000c003200295dba008b05e900080032006a
:100560000c00e00003003a00e284440032a0b40032
:10057000f5ff370019ddba008b05e900faff3a00f4
:100580008904e800e184440032a0b40000000600c1
:10059000000000000000000000000000000000005b
:1005a0000000000000000000809fbe000000fa0074
:1005b0001828ef00b0962000104078008040e80036
:1005c000b096200001487800a096200011c0b3002a
:1005d000014878008460a9000080fa004f00be0046
:1005e000004006003600f8008020a9000000eb0063
:1005f0000f0607003600f800110607008040a9002a
:10060000100020000a0607003600f8008060a900ec
:1006100020002000060607003600f8008080a900b0
:1006200030002000020607003600f800809fbe0060
:10063000829fbe00849fbe00869fbe000000fa001d
:10064000100607008400a9000080fa004f03be00d6
:100650004f02be004f01be004f00be003600f90041
:10066000004006003600f800809fbe00829fbe005a
:10067000849fbe00869fbe000000fa0010418000eb
:10068000000001000080fa004f03be004f02be00d0
:100690004f01be004f00be003600f90000400600ca
:1006a0003600f800809fbe00829fbe00849fbe007f
:1006b000869fbe000000fa0020418000000001007b
:1006c0000080fa004f03be004f02be004f01be0083
:1006d0004f00be003600f90000400600801f780081
:1006e0000000fa0010118000620060000000e000cd
:1006f000010032002222a9008c20a9000080fa000b
:100700004f00780000400600809fbe000000fa0005
:10071000101680006100600000f0a7000000ea00f1
:100720000000e9004f00de00004078000080fb0080
:1007300061006000111680000100a100010070003e
:1007400010168800a04080000000e800a04088004b
:1007500016c8bf000040e90016e8b70016c8bf0081
:100760000004e00004003200a04080001040780047
:100770000080fb00a011880087e0a9000080fa003b
:100780004f00be0000400600801f78000000fa0005
:1007900090118000620060000000e0000100320063
:1007a0003222a9008c40a9000080fa004f00780096
:1007b000004006000040da000000fe0000000500d6
:020000040000fa
:1007c00000000000c1c0000081c100004001000025
:1007d00001c30000c00300008002000041c200000d
:1007e00001c60000c00600008007000041c70000ed
:1007f00000050000c1c5000081c4000040040000e5
:1008000001cc0000c00c0000800d000041cd0000b4
:10081000000f0000c1cf000081ce0000400e00009c
:10082000000a0000c1ca000081cb0000400b00009c
:1008300001c90000c00900008008000041c8000094
:1008400001d80000c01800008019000041d9000044
:10085000001b0000c1db000081da0000401a00002c
:10086000001e0000c1de000081df0000401f00000c
:1008700001dd0000c01d0000801c000041dc000004
:1008800000140000c1d4000081d500004015000014
:1008900001d70000c01700008016000041d60000fc
:1008a00001d20000c01200008013000041d30000fc
:1008b00000110000c1d1000081d0000040100000f4
:1008c00001f00000c03000008031000041f1000064
:1008d00000330000c1f3000081f20000403200004c
:1008e00000360000c1f6000081f70000403700002c
:1008f00001f50000c03500008034000041f4000024
:10090000003c0000c1fc000081fd0000403d0000f3
:1009100001ff0000c03f0000803e000041fe0000db
:1009200001fa0000c03a0000803b000041fb0000db
:1009300000390000c1f9000081f8000040380000d3
:1009400000280000c1e8000081e900004029000003
:1009500001eb0000c02b0000802a000041ea0000eb
:1009600001ee0000c02e0000802f000041ef0000cb
:10097000002d0000c1ed000081ec0000402c0000c3
:1009800001e40000c02400008025000041e50000d3
:1009900000270000c1e7000081e6000040260000bb
:1009a00000220000c1e2000081e3000040230000bb
:1009b00001e10000c02100008020000041e00000b3
:1009c00001a00000c06000008061000041a10000a3
:1009d00000630000c1a3000081a20000406200008b
:1009e00000660000c1a6000081a70000406700006b
:1009f00001a50000c06500008064000041a4000063
:100a0000006c0000c1ac000081ad0000406d000032
:100a100001af0000c06f0000806e000041ae00001a
:100a200001aa0000c06a0000806b000041ab00001a
:100a300000690000c1a9000081a800004068000012
:100a400000780000c1b8000081b9000040790000c2
:100a500001bb0000c07b0000807a000041ba0000aa
:100a600001be0000c07e0000807f000041bf00008a
:100a7000007d0000c1bd000081bc0000407c000082
:100a800001b40000c07400008075000041b5000092
:100a900000770000c1b7000081b60000407600007a
:100aa00000720000c1b2000081b30000407300007a
:100ab00001b10000c07100008070000041b0000072
:100ac00000500000c19000008191000040510000e2
:100ad00001930000c05300008052000041920000ca
:100ae00001960000c05600008057000041970000aa
:100af00000550000c19500008194000040540000a2
:100b0000019c0000c05c0000805d0000419d000071
:100b1000005f0000c19f0000819e0000405e000059
:100b2000005a0000c19a0000819b0000405b000059
:100b300001990000c0590000805800004198000051
:100b400001880000c0480000804900004189000081
:100b5000004b0000c18b0000818a0000404a000069
:100b6000004e0000c18e0000818f0000404f000049
:100b7000018d0000c04d0000804c0000418c000041
:100b800000440000c1840000818500004045000051
:100b900001870000c0470000804600004186000039
:100ba00001820000c0420000804300004183000039
:100bb00000410000c1810000818000004040000031
:020000040000fa
:100bc0000000fa0097e0a90097c0a900800020006b
:100bd000801188003222ef00001a2000c011880026
:100be00097c0a80031e2a8003342a80087e0a9001e
:100bf00097e0a8000080fa00000006000200fa005a
:100c0000000f78001e007800f04088000080fa0095
:100c1000000006000000fa00814080007040800063
:100c2000808f500002003a0097e0a90019003700b9
:100c300087e0a900100037008040800090407800d5
:100c40008180fb00a11188000000e800804088003e
:100c50008140800070922000808f500002003a0096
:100c6000e09120008040880081408000704080003a
:100c7000808f50000600320091118000002020007b
:100c8000008060000000e000ebff32000100370050
:100c9000000000000080fa00000006000200fa00d8
:100ca000000f78001e007800004188000080fa00e4
:100cb000000006000000fa001e00370050408000cf
:100cc000b1118000814078000148780051408000d7
:100cd000f0922000808f50000900320050408000c8
:100ce0008000e80060408000808f500004003200e7
:100cf000504080000000e800504088000d003700a0
:100d000051408000f0922000808f500007003a0090
:100d10006140800070922000808f500003003200fc
:100d200070922000504088000200370010c0b300cd
:100d300012e8b70090118000610060000000e00040
:100d4000deff3a0087c0a9000080fa00000006001c
:100d50000200fa000040eb00004f780000000000a5
:100d60006140800050408000808f5000fcff3200c6
:100d700060408000104f7800604080000000e80074
:100d8000604088006140800000932000808f500008
:100d900002003a0070922000604088001e407800f7
:100da0000080fa00000006000200fa00004f780000
:100db000000000001c0007000004a2000004e00086
:100dc000fcff3a00704080001e48780070408000b0
:100dd0000000e800704088007140800070922000a0
:100de000808f500002003a00e0912000704088009f
:100df00097e0a8000080fa00000006000000fa005a
:100e000061408000504080000080680000f0a70032
:100e10000000ea000000ea004f00de000040780019
:100e20000080fa00000006000400fa008140800003
:100e300011079800714080001e009000808f5000c4
:100e4000060031009e00900070408000008050003d
:100e50000000e900000f7800050037009e009000b8
:100e6000704080000080500068004000000f780053
:100e70001e00780000f0a7000000ea000000ea0071
:100e80004f00de00004078000080fa0000000600fd
:100e90000000fa007140800080408000808f500088
:100ea00009003a00911180000010200000806000cd
:100eb00000f0a7000000ea000000ea004f00de009a
:100ec00000407800010037000040eb000080fa008d
:100ed000000006000400fa0051408000110798004d
:100ee000604080009e009000808f5000060031001e
:100ef0009e0090006040800000805000690040002b
:100f0000000f7800040037009e00900060408000d1
:100f100000805000000f7800f00f20009e00780045
:100f2000808f50000200360000c0eb000200370046
:100f30001e007800004078000080fa0000000600e3
:100f40000400fa0081408000110798007140800081
:100f50001e009000808f5000060031009e0090001f
:100f600070408000008050000000e900000f780011
:100f7000050037009e009000704080000080500007
:100f800068004000000f7800f00f20009e007800fd
:100f9000808f50000200360000c0eb0002003700d6
:100fa0001e007800004078000080fa000000060073
:100fb0000800fa002007980031079800c5ff0700d5
:100fc0000080fb00000f78003e0090009e0f500054
:100fd00002003100be009000010f78000000eb001d
:100fe000100798000900370059ff0700ae00900075
:100ff000804878002e0090000000e800200798004c
:101000001e0090000000e800100798001e009000ed
:101010009e0f5000f4ff39001e0078000080fa0097
:10102000000006000800fa00200798003107980029
:10103000c3ff07000080fb00000f78003e00900017
:101040009e0f500002003100be009000010f78009a
:101050000000eb0010079800090037002e009000f8
:1010600010407800ae0090008100e8002107980051
:101070004dff07001e0090000000e80010079800d8
:101080001e0090009e0f5000f4ff39001e007800f3
:101090000080fa00000006000400fa000000eb00e7
:1010a000000f78008bff070020479800a4ff07007f
:1010b000304798002e4090000080fb000000e000c8
:1010c00003003200e90f5000030032000400370033
:1010d0001e20a000040037001e00a0000200370000
:1010e0001e10a000000000003e4090000080fb00a9
:1010f0000000e00003003200e90f5000030032005e
:10110000040037001e30a000020037001e40a0007f
:10111000000000001e0078000080fa0000000600b9
:101120000400fa0010079800614080001e00900043
:10113000008f4000020037009e007800698f500049
:10114000009320009e007800808f5000faff3e0040
:101150001e007800104078000080fa0000000600b1
:101160000000fa005bff07000080fb000000e900c0
:101170004f00de00004078000080fa00000006000a
:101180000000fa006eff07000080fb000000e9008d
:101190004f00de00004078000080fa0000000600ea
:1011a0000000fa00901180000080fa0000000600a4
:1011b0000000fa0062ff07000004e0000f003200a8
:1011c0008140800070408000808f50000500360014
:1011d00080408000800078007040800000805000d7
:1011e0000700370080408000800078007040800059
:1011f0000080500069004000010037000000eb0053
:101200000080fa00000006000000fa0031ff07002d
:101210000004e0000f003200614080005040800078
:10122000808f50000500360060408000800078000c
:101230005040800000805000070037006040800070
:10124000800078005040800000805000690040001d
:10125000010037000000eb000080fa0000000600eb
:101260000000fa0031e2a8003342a8000080fa0032
:10127000000006000000fa0031e2a9003342a90094
:101280000080fa00000006000000fa008000200044
:10129000001188002222ef00001a2000401188006f
:1012a0009560a800409f2000490007006099200039
:1012b0001800070021e2a8002342a800a095200002
:1012c000b04a8800a0952000a04a880020962000ff
:1012d000904a880020962000804a8800c04a8000fa
:1012e0000010a000c04a8800c04a80000090a00002
:1012f000c04a8800c04a80000080a100c04a88001f
:10130000c04a80000000a100c04a88000080fa00a6
:10131000000006000200fa00000f78001e007800ae
:10132000104188000080fa00000006000000fa006a
:10133000c14a800000202000008060000000e00022
:10134000020032009580a9001f0037008580a900a7
:1013500018003700b04a8000104078000080fb0081
:1013600020118800b04a80000000e800b04a8800e0
:10137000b14a800020962000808f500002003a0081
:10138000a0952000b04a8800c04a80000080a100db
:10139000c04a8800b14a8000a04a8000808f500077
:1013a00004003a00c04a80000090a000c04a8800b3
:1013b000050037001111800000202000008060002f
:1013c0000000e000e3ff32000080fa0000000600a9
:1013d0000200fa00000f78001e007800204188000b
:1013e0000080fa00000006000000fa001800370034
:1013f000804a8000311180008140780001487800e7
:10140000804a80000000e800804a8800814a80000d
:10141000a0962000808f500002003a002096200005
:10142000804a8800c04a80000010a100c04a88009d
:10143000814a8000904a8000808f500004003a006a
:10144000c04a80000000a000c04a880004003700a5
:1014500010118000610060000000e000e4ff3a002d
:101460008560a9000080fa00000006000200fa0072
:101470000040eb00004f7800904a8000104f780049
:10148000904a80000000e800904a8800914a80005d
:10149000a0962000808f500002003a002096200085
:1014a000904a8800914a8000804a8000808f5000d6
:1014b00003003a00c04a80000010a000c04a880023
:1014c000c04a80000000a100c04a88001e40780089
:1014d0000080fa00000006000600fa00881f78006d
:1014e00010079800210798000000eb00000f78001b
:1014f00009003700c04a8000620060000000e00080
:101500000a003a001e0090001e044000d7ff0700aa
:10151000004c78001e0fe8002e0090009e0078001e
:10152000808f5000f3ff39000100370000000000f9
:101530001e0078004f0478000080fa0000000600ca
:101540000200fa00004f78009580a900a04a8000b0
:101550001e487800a04a80000000e800a04a8800e9
:10156000a14a800020962000808f500002003a009f
:10157000a0952000a04a8800c04a80000090a100e9
:10158000c04a8800b14a8000a04a8000808f500085
:1015900003003a00c04a80000080a000c04a8800d2
:1015a0009580a8000080fa00000006000600fa00fe
:1015b00010079800210798000000eb00000f78004a
:1015c0000a003700c14a800000102000008060003f
:1015d0000000e0000a003a001e0090001e004000db
:1015e000104078001e0fe800d5ff07002e00900085
:1015f0009e007800808f5000f2ff39000100370014
:10160000000000001e0078000080fa0000000600c4
:101610000200fa000000eb00000f7800c14a8000d1
:1016200000102000008060000000e0000100320097
:101630001e30a000c14a8000002020000080600011
:101640000000e000010032001e40a000c04a8000ff
:10165000610060000000e000010032001e00a000f8
:10166000c04a8000620060000000e000020032001a
:101670001e20a000010037001e10a0001e007800f0
:101680000080fa00000006000200fa00000f780057
:10169000904a80009e004000a0962000808f50005d
:1016a00008003600904a80009e004000a09620006e
:1016b0000000ea0000804000219620006140780090
:1016c00003003700904a80001e0040001040780060
:1016d0000080fa00000006000000fa00c04a800006
:1016e000610060000000e00011003a00914a8000b3
:1016f000804a8000808f500006003600904a8000ab
:1017000080407800804a80000040780000c050008f
:1017100008003700904a800080407800804a8000ae
:101720000040780000c050006840400001003700d1
:101730000040eb000080fa00000006000000fa0004
:10174000c14a800000102000008060000000e0001e
:1017500011003a00b14a8000a04a8000808f5000fa
:1017600006003600b04a800080407800a04a800021
:101770000040780000c0500008003700b04a8000e8
:1017800080407800a04a80000040780000c05000ef
:1017900068404000010037000040eb000080fa0084
:1017a000000006000000fa00c04a80000000d100de
:1017b000614060000080fb0000f0a7000000ea002c
:1017c0000000ea004f00de00004078000080fa00d0
:1017d000000006000000fa00c04a80004800de0059
:1017e000614060000080fb0000f0a7000000ea00fc
:1017f0000000ea004f00de00004078000080fa00a0
:10180000000006000000fa00101180000080fa00bd
:10181000000006000000fa00101180004800de0001
:10182000614060000080fb0000f0a7000000ea00bb
:101830000000ea004f00de00004078000080fa005f
:10184000000006000000fa000021ef00300e20002a
:1018500010088800000328002008880050418000fc
:101860000000e00002003a00c0c720002500070089
:101870008460a9009460a800a09620008040eb003e
:101880000148780011e1a8000080fa00000006007d
:101890000200fa00000f78009e007800110888000e
:1018a000a09620008040eb00014878000080fa00fc
:1018b000000006000000fa00100880000080fa0016
:1018c000000006000200fa00000f78009e00780079
:1018d00001088800a09620008040eb0001487800b5
:1018e0000080fa00000006000000fa0000088000f6
:1018f0000080fa00000006000000fa000080fa00f4
:10190000000006000200fa00000f78009460a900b1
:101910009e007800514188009460a8000080fa0081
:10192000000006000000fa00a09620008040eb00b6
:10193000014878009460a80005e1a8000080fa0042
:10194000000006000000fa0005e1a9009460a9006b
:101950000080fa00000006000200fa00a0962000b5
:10196000104f78001e4078000004e00003003200b1
:10197000a09620008040eb00014878001e407800cf
:101980000080fa00000006000000fa00b096200077
:10199000104078000080fb000080fa000000060084
:1019a0000000fa00b09620008040eb00014878006b
:1019b0000080fa00000006000000fa00270107007e
:1019c000a08b200011c0b30001487800b08b20002c
:1019d00031c0b30001487800c08b20008040eb008c
:1019e00001487800d08b20008040eb00014878004f
:1019f000e08b20008040eb0001487800f08b200055
:101a000021c0b3000148780061002000a08b2000b5
:101a1000a20007002040880041802000914078000b
:101a2000008c20000148780051802000914078000f
:101a3000108c20000148780080c0b30016e8b70081
:101a4000a08b2000a0408800a040800010407800bb
:101a50000080fb00a01188002628ef002828ef0056
:101a600006003700304180004141800061004000a5
:101a7000e0804800304188004141880032418000c8
:101a800043418000f0232400f1002000800f51002a
:101a9000818f5900f3ff360010168000620060004d
:101aa00000f0a7000000ea000000e9004f00de009f
:101ab000004078000080fb006100600000004000f2
:101ac000111680000110a10001007000101688009e
:101ad000bbff37000000fa0043c7bf008080fb0057
:101ae000800f20000081600080072000a1092000f5
:101af0003374200080497800814978008249780059
:101b0000103a80004c00de00e7406000103a800090
:101b10004800de006740600080cf500013003200b4
:101b200042c7bf000081fb00600420007105200057
:101b30002374200080497800814978008249780028
:101b400000000000103a8000610060000000e0002a
:101b5000fcff3a0000000000113a80000002200063
:101b6000008060000000e000fbff32000000230066
:101b7000203a88004827ef007027ef007227ef0017
:101b80007427ef001200200080072000a109200028
:101b900033742000804978008149780082497800b8
:101ba0001200200060042000710520002374200032
:101bb0008049780081497800824978000080fa00e5
:101bc000000006000000fa00c422ef00000025001b
:101bd00060168800c00020000016880010cf2a0080
:101be000401688006820ef006a20ef00c622ef0050
:101bf000ce22ef0070e3210060198800113a8000c6
:101c0000f00b2000008160006004200071052000be
:101c10002374200080497800814978008249780047
:101c20002135800000fe2f0000806000f000b3002e
:101c3000203588006136800000fe2f0000806000a3
:101c40005000b300603688003135800000fe2f0060
:101c500000806000d000b30030358800713680000d
:101c600000fe2f00008060003000b3007036880056
:101c7000103a8000000178000260a000600420009b
:101c80007105200023742000804978008149780084
:101c9000824978000080fa00000006000800fa007f
:101ca00020079800310798000080eb00000f7800b3
:101cb000130037002e009000904078001e0078003e
:101cc0000040780000c06800204798002e00900077
:101cd0000000e800200798001e0078004800de00a1
:101ce000000f78002e4090000080fb008000400034
:101cf000003e280000804000100078001e0f6800a1
:101d00003e00900000f0a7000000ea000000ea009a
:101d10004f00de0000407800be0090008100e90026
:101d2000310798000004e000e2ff3a001e0078004e
:101d30000080fa00000006000000fa002106800082
:101d4000f08f2f00008060000080a0002006880037
:101d500091058000f0ff28000080600000c0a00016
:101d60009005880091058000f08f2f0000806000b2
:101d70000080a0009005880021068000f0f82f0068
:101d8000008060000040a00020068800510580000f
:101d900080ff2f00008060000000a0005005880038
:101da00041058000f0ff28000080600000c0a00016
:0c1db000400588000080fa0000000600da
:020000040000fa
:101dbc006a09000002000000000000002a08000070
:101dcc0002000000000000003009000020000000ac
:101ddc00000000002c0800000200000002000000bf
:101dec00ffff0000500900001a0000000000000076
:101dfc002208000004000000000000002e08000073
:101e0c000201000000000000000800002200000099
:101e1c000000000026080000040000000000000084
:041e2c0000000000b2
:020000040000fa
:101e3000000f78009e00780061418800ffff3700a6
:101e40000000fa00009320008007780080942000b2
:101e5000000188000080fa00000006000000fa007f
:101e600058ff07001bff0700b3ff070006fd070030
:101e700053fb07000600070072fe07000080fa000f
:101e8000000006000000fa000080fa0000000600d2
:101e90000000fa008400a9008200a9000080fa0076
:101ea000000006000000fa000aff07000080fa00a8
:041eb0000000060028
:020000040000fa
:020000040001f9
:0457f8001f79000015
:020000040000fa
:020000040001f9
:0457fc00fd3d00006f
:00000001FF
