:020000040000fa
:080000000002040000000000f2
:020000040000fa
:0400080010060000de
:020000040000fa
:04000c0036030000b7
:020000040000fa
:0400100048030000a1
:020000040000fa
:040014003e030000a7
:020000040000fa
:040018005003000091
:020000040000fa
:04001c0010060000ca
:020000040000fa
:0400200010060000c6
:020000040000fa
:0400240010060000c2
:020000040000fa
:0400280010060000be
:020000040000fa
:04002c0010060000ba
:020000040000fa
:0400300010060000b6
:020000040000fa
:0400340018030000ad
:020000040000fa
:0400380010060000ae
:020000040000fa
:04003c0010060000aa
:020000040000fa
:0400400010060000a6
:020000040000fa
:040044005404000060
:020000040000fa
:04004800100600009e
:020000040000fa
:04004c00100600009a
:020000040000fa
:040050001006000096
:020000040000fa
:040054009a0300000b
:020000040000fa
:040058005803000049
:020000040000fa
:04005c00100600008a
:020000040000fa
:040060001006000086
:020000040000fa
:040064001006000082
:020000040000fa
:04006800100600007e
:020000040000fa
:04006c00100600007a
:020000040000fa
:040070001006000076
:020000040000fa
:040074001006000072
:020000040000fa
:04007800100600006e
:020000040000fa
:04007c00100600006a
:020000040000fa
:040080001006000066
:020000040000fa
:040084001006000062
:020000040000fa
:04008800100600005e
:020000040000fa
:04008c00100600005a
:020000040000fa
:040090001006000056
:020000040000fa
:040094001006000052
:020000040000fa
:04009800100600004e
:020000040000fa
:04009c00100600004a
:020000040000fa
:0400a0000c0400004c
:020000040000fa
:0400a400cc03000089
:020000040000fa
:0400a800100600003e
:020000040000fa
:0400ac00100600003a
:020000040000fa
:0400b0001006000036
:020000040000fa
:0400b4001006000032
:020000040000fa
:0400b800100600002e
:020000040000fa
:0400bc00100600002a
:020000040000fa
:0400c0001006000026
:020000040000fa
:0400c4001006000022
:020000040000fa
:0400c800100600001e
:020000040000fa
:0400cc00100600001a
:020000040000fa
:0400d0001006000016
:020000040000fa
:0400d4001006000012
:020000040000fa
:0400d800100600000e
:020000040000fa
:0400dc00100600000a
:020000040000fa
:0400e0001006000006
:020000040000fa
:0400e4001006000002
:020000040000fa
:0400e80010060000fe
:020000040000fa
:0400ec0010060000fa
:020000040000fa
:0400f00010060000f6
:020000040000fa
:0400f40010060000f2
:020000040000fa
:0400f80010060000ee
:020000040000fa
:0400fc0010060000ea
:020000040000fa
:0401000010060000e5
:020000040000fa
:0401040010060000e1
:020000040000fa
:0401080010060000dd
:020000040000fa
:04010c0010060000d9
:020000040000fa
:0401100010060000d5
:020000040000fa
:0401140010060000d1
:020000040000fa
:0401180010060000cd
:020000040000fa
:04011c0010060000c9
:020000040000fa
:0401200010060000c5
:020000040000fa
:0401240010060000c1
:020000040000fa
:0401280010060000bd
:020000040000fa
:04012c0010060000b9
:020000040000fa
:040130003e04000089
:020000040000fa
:0401340010060000b1
:020000040000fa
:0401380010060000ad
:020000040000fa
:04013c0010060000a9
:020000040000fa
:0401400010060000a5
:020000040000fa
:0401440010060000a1
:020000040000fa
:04014800100600009d
:020000040000fa
:0402080010060000dc
:020000040000fa
:04020c0036030000b5
:020000040000fa
:04021000480300009f
:020000040000fa
:040214003e030000a5
:020000040000fa
:04021800500300008f
:020000040000fa
:04021c0010060000c8
:020000040000fa
:0402200010060000c4
:020000040000fa
:0402240010060000c0
:020000040000fa
:0402280010060000bc
:020000040000fa
:04022c0010060000b8
:020000040000fa
:0402300010060000b4
:020000040000fa
:0402340018030000ab
:020000040000fa
:0402380010060000ac
:020000040000fa
:04023c0010060000a8
:020000040000fa
:0402400010060000a4
:020000040000fa
:04024400540400005e
:020000040000fa
:04024800100600009c
:020000040000fa
:04024c001006000098
:020000040000fa
:040250001006000094
:020000040000fa
:040254009a03000009
:020000040000fa
:040258005803000047
:020000040000fa
:04025c001006000088
:020000040000fa
:040260001006000084
:020000040000fa
:040264001006000080
:020000040000fa
:04026800100600007c
:020000040000fa
:04026c001006000078
:020000040000fa
:040270001006000074
:020000040000fa
:040274001006000070
:020000040000fa
:04027800100600006c
:020000040000fa
:04027c001006000068
:020000040000fa
:040280001006000064
:020000040000fa
:040284001006000060
:020000040000fa
:04028800100600005c
:020000040000fa
:04028c001006000058
:020000040000fa
:040290001006000054
:020000040000fa
:040294001006000050
:020000040000fa
:04029800100600004c
:020000040000fa
:04029c001006000048
:020000040000fa
:0402a0000c0400004a
:020000040000fa
:0402a400cc03000087
:020000040000fa
:0402a800100600003c
:020000040000fa
:0402ac001006000038
:020000040000fa
:0402b0001006000034
:020000040000fa
:0402b4001006000030
:020000040000fa
:0402b800100600002c
:020000040000fa
:0402bc001006000028
:020000040000fa
:0402c0001006000024
:020000040000fa
:0402c4001006000020
:020000040000fa
:0402c800100600001c
:020000040000fa
:0402cc001006000018
:020000040000fa
:0402d0001006000014
:020000040000fa
:0402d4001006000010
:020000040000fa
:0402d800100600000c
:020000040000fa
:0402dc001006000008
:020000040000fa
:0402e0001006000004
:020000040000fa
:0402e4001006000000
:020000040000fa
:0402e80010060000fc
:020000040000fa
:0402ec0010060000f8
:020000040000fa
:0402f00010060000f4
:020000040000fa
:0402f40010060000f0
:020000040000fa
:0402f80010060000ec
:020000040000fa
:0402fc0010060000e8
:020000040000fa
:0403000010060000e3
:020000040000fa
:0403040010060000df
:020000040000fa
:0403080010060000db
:020000040000fa
:04030c0010060000d7
:020000040000fa
:0403100010060000d3
:020000040000fa
:0403140010060000cf
:020000040000fa
:0403180010060000cb
:020000040000fa
:04031c0010060000c7
:020000040000fa
:0403200010060000c3
:020000040000fa
:0403240010060000bf
:020000040000fa
:0403280010060000bb
:020000040000fa
:04032c0010060000b7
:020000040000fa
:040330003e04000087
:020000040000fa
:0403340010060000af
:020000040000fa
:0403380010060000ab
:020000040000fa
:04033c0010060000a7
:020000040000fa
:0403400010060000a3
:020000040000fa
:04034400100600009f
:020000040000fa
:04034800100600009b
:020000040000fa
:100400008fc720000e7f22000e0188000000000030
:10041000000020000000e000020032000001200087
:100420002002880014000700ff0107000000e00020
:1004300003003a00600321000100200002003700a1
:100440000000200001002000810f70000100320038
:1004500014000700000020000000e000020032004d
:100460000000020000000000b413020000000000c1
:100470000040da000000fe004440a90000202000f7
:100480000000e0000300320000002000a00188000e
:100490004440a800000006008a1f78008b1f7800e7
:1004a0000000060091018800800478000000eb0045
:1004b0001a003700e284440032a0b4009905ba0063
:1004c000e284440032a0b4009906ba00e2844400f9
:1004d00032a0b4000006eb00476fde00fd07b2005b
:1004e000636ce10003003a00ebff07000000eb0043
:1004f0000a003700606ce10004003a00005deb0088
:100500008b05e900fdff3e00040037006168e10053
:10051000010032000086eb000b00070019c7ba008b
:100520001905ba000e04e00003003a000a00e000da
:10053000e0ff3a0000000600fe07b2009e018800be
:100540008a047800f5ff3700395dba008b05e900b1
:100550000c003200295dba008b05e900080032006a
:100560000c00e00003003a00e284440032a0b40032
:10057000f5ff370019ddba008b05e900faff3a00f4
:100580008904e800e184440032a0b40000000600c1
:10059000000000000000000000000000000000005b
:1005a000000000000000000000000000000000004b
:1005b000000000000000000000000000000000003b
:1005c000000000000000000000000000000000002b
:1005d000000000000000000000000000000000001b
:1005e000000000000000000000000000000000000b
:1005f00000000000000000000000000000000000fb
:1006000000000000000000000000000000000000ea
:1006100000000000000000000000000000000000da
:1006200000000000000000000000000000000000ca
:10063000809fbe000000fa001628ef0070c720005f
:10064000104078008040e80070c720000148780022
:1006500060c7200011c0b300014878008460a90081
:100660000080fa004f00be00004006003600f8008f
:100670008020a9000000eb001a0807003600f800ef
:100680001c0807008040a900100020001508070082
:100690003600f8008060a900200020001108070043
:1006a0003600f8008080a900300020000d08070007
:1006b000809fbe000000fa001016800062006000fb
:1006c00000f0a7000000ea000000e9004f00de0093
:1006d000004078000080fb006100600000004000e6
:1006e000111680000110a100010070001016880092
:1006f000904080000000e8009040880014c8bf00cf
:100700000040e90014e8b70014c8bf000004e0008e
:100710000400320090408000104078000080fb0010
:10072000201188008580a9000080fa004f00be00db
:10073000004006003600f800809fbe00829fbe0089
:10074000849fbe00869fbe000000fa000621ef00d5
:10075000301180000040780019e8b700c202a800fc
:10076000b04080008000400060b620000080400063
:1007700010007800000001008560a9000080fa00e8
:100780004f03be004f02be004f01be004f00be002f
:100790003600f90000400600809fbe000000fa000d
:1007a000101680006100600000f0a7000000ea0061
:1007b0000000e9004f00de00004078000080fb00f0
:1007c00061006000111680000100a10001007000ae
:1007d00010168800904080000000e80090408800db
:1007e00014c8bf000040e90014e8b70014c8bf00f7
:1007f0000004e000040032009040800010407800c7
:100800000080fb00a011880087e0a9000080fa00aa
:100810004f00be00004006003600f800809fbe007a
:10082000829fbe00849fbe00869fbe000000fa002b
:100830000021ef00b01180000040780019e8b700f7
:10084000c202a800b04080008000400060b62000d6
:1008500000804000100078000000010087c0a9005f
:100860000080fa004f03be004f02be004f01be00e1
:100870004f00be003600f90000400600801f7800df
:100880000000fa0090118000620060000000e000ab
:10089000010032003222a9008c40a9000080fa0039
:1008a0004f007800004006003600f800809fbe0030
:1008b000829fbe00849fbe00869fbe000000fa009b
:1008c00020418000e10f500003003200e20f500091
:1008d0003c003200ca00370040418000e30f500066
:1008e00019003200e30f500005003c00e10f5000fa
:1008f00008003200e20f50000f0032002f003700d6
:10090000e40f500019003200e50f500020003200c3
:100910002a00370003f02f000001eb0051c0b300a4
:1009200010c0b30028040700404180000000e80028
:100930004041880022003700404180000000e8006c
:10094000404188001e00370003f02f000001eb003b
:1009500051c0b30030c0b3001b0407004041800009
:100960000000e800404188001500370003f02f0028
:100970000001eb0051c0b30040c0b30012040700f7
:10098000404180000000e800404188000c00370032
:1009900003f02f000001eb0051c0b30050c0b300c2
:1009a00009040700204180000000e8002041880081
:1009b00010002000404188000100370000000000c6
:1009c0008f00370040418000e50f50004c0032009e
:1009d000e50f50000c003c00e20f50001f003200f9
:1009e000e20f500003003c00e10f50000f00320006
:1009f00081003700e30f500021003200e40f500067
:100a00002b0032007c003700e70f5000540032000a
:100a1000e70f500046003500e80f50005c00320040
:100a2000e90f50006600320073003700100020000c
:100a300060418800604180001300200000017800c0
:100a400041c0b30010c0b300ae03070040418000b6
:100a50000000e800404188006800370013002000d3
:100a60000001eb0041c0b30020c0b300a5030700a4
:100a7000404180000000e800404188005f003700ee
:100a80006000200060418800604180001300200069
:100a90000001780041c0b30030c0b30099030700e3
:100aa000404180000000e8004041880053003700ca
:100ab0004003200050418800504180001300200076
:100ac0000001780041c0b30040c0b3008d030700af
:100ad0002000200060418800604180001300200059
:100ae0000001780041c0b30040c0b3008503070097
:100af000404180000000e800404188003f0037008e
:100b00000004200050418800504180001300200064
:100b10000001780041c0b30050c0b3007903070062
:100b2000404180000000e800404188003300370069
:100b300040002000604188006041800013002000d8
:100b40000001780041c0b30060c0b3006d0307002e
:100b5000404180000000e800404188002700370045
:100b60008000200050418800504180001300200088
:100b70000001780041c0b30070c0b30061030700fa
:100b8000404180000000e800404188001b00370021
:100b900000012000504188005041800013002000d7
:100ba0000001780041c0b30080c0b30055030700c6
:100bb000404180000000e800404188000f003700fd
:100bc00000042000504188005041800013002000a4
:100bd0000001780041c0b30090c0b3004903070092
:100be0001000200040418800204180000000e90002
:100bf00020418800010037000000000000000000d4
:100c000084e0a9000080fa004f03be004f02be003e
:100c10004f01be004f00be003600f9000040060044
:0c0c20000040da000000fe0000000500ab
:020000040000fa
:100c2c0000000000c1c0000081c1000040010000b4
:100c3c0001c30000c00300008002000041c200009c
:100c4c0001c60000c00600008007000041c700007c
:100c5c0000050000c1c5000081c400004004000074
:100c6c0001cc0000c00c0000800d000041cd000044
:100c7c00000f0000c1cf000081ce0000400e00002c
:100c8c00000a0000c1ca000081cb0000400b00002c
:100c9c0001c90000c00900008008000041c8000024
:100cac0001d80000c01800008019000041d90000d4
:100cbc00001b0000c1db000081da0000401a0000bc
:100ccc00001e0000c1de000081df0000401f00009c
:100cdc0001dd0000c01d0000801c000041dc000094
:100cec0000140000c1d4000081d5000040150000a4
:100cfc0001d70000c01700008016000041d600008c
:100d0c0001d20000c01200008013000041d300008b
:100d1c0000110000c1d1000081d000004010000083
:100d2c0001f00000c03000008031000041f10000f3
:100d3c0000330000c1f3000081f2000040320000db
:100d4c0000360000c1f6000081f7000040370000bb
:100d5c0001f50000c03500008034000041f40000b3
:100d6c00003c0000c1fc000081fd0000403d000083
:100d7c0001ff0000c03f0000803e000041fe00006b
:100d8c0001fa0000c03a0000803b000041fb00006b
:100d9c0000390000c1f9000081f800004038000063
:100dac0000280000c1e8000081e900004029000093
:100dbc0001eb0000c02b0000802a000041ea00007b
:100dcc0001ee0000c02e0000802f000041ef00005b
:100ddc00002d0000c1ed000081ec0000402c000053
:100dec0001e40000c02400008025000041e5000063
:100dfc0000270000c1e7000081e60000402600004b
:100e0c0000220000c1e2000081e30000402300004a
:100e1c0001e10000c02100008020000041e0000042
:100e2c0001a00000c06000008061000041a1000032
:100e3c0000630000c1a3000081a20000406200001a
:100e4c0000660000c1a6000081a7000040670000fa
:100e5c0001a50000c06500008064000041a40000f2
:100e6c00006c0000c1ac000081ad0000406d0000c2
:100e7c0001af0000c06f0000806e000041ae0000aa
:100e8c0001aa0000c06a0000806b000041ab0000aa
:100e9c0000690000c1a9000081a8000040680000a2
:100eac0000780000c1b8000081b900004079000052
:100ebc0001bb0000c07b0000807a000041ba00003a
:100ecc0001be0000c07e0000807f000041bf00001a
:100edc00007d0000c1bd000081bc0000407c000012
:100eec0001b40000c07400008075000041b5000022
:100efc0000770000c1b7000081b60000407600000a
:100f0c0000720000c1b2000081b300004073000009
:100f1c0001b10000c07100008070000041b0000001
:100f2c0000500000c1900000819100004051000071
:100f3c0001930000c0530000805200004192000059
:100f4c0001960000c0560000805700004197000039
:100f5c0000550000c1950000819400004054000031
:100f6c00019c0000c05c0000805d0000419d000001
:100f7c00005f0000c19f0000819e0000405e0000e9
:100f8c00005a0000c19a0000819b0000405b0000e9
:100f9c0001990000c05900008058000041980000e1
:100fac0001880000c0480000804900004189000011
:100fbc00004b0000c18b0000818a0000404a0000f9
:100fcc00004e0000c18e0000818f0000404f0000d9
:100fdc00018d0000c04d0000804c0000418c0000d1
:100fec0000440000c18400008185000040450000e1
:100ffc0001870000c04700008046000041860000c9
:10100c0001820000c04200008043000041830000c8
:10101c0000410000c18100008180000040400000c0
:020000040000fa
:10102c000000fa0097e0a90097c0a90080002000fa
:10103c00801188003222ef00001a2000c0118800b5
:10104c0097c0a80031e2a8003342a80087e0a900ad
:10105c0097e0a8000080fa00000006000200fa00e9
:10106c00000f78001e007800d04088000080fa0045
:10107c00000006000000fa00714080006040800013
:10108c00808f500002003a0097e0a9001900370049
:10109c0087e0a90010003700704080009040780075
:1010ac008180fb00a11188000000e80070408800de
:1010bc0071408000d0b52000808f500002003a00b3
:1010cc0040b5200070408800714080006040800076
:1010dc00808f50000600320091118000002020000b
:1010ec00008060000000e000ebff320001003700e0
:1010fc00000000000080fa00000006000200fa0068
:10110c00000f78001e007800e04088000080fa0094
:10111c00000006000000fa00918120009140780048
:10112c0006c8bf0080cf50000d003a001868ef00d1
:10113c0018c8bf008080fb00938120009341780089
:10114c00c2a8200003f178000040e80018e8b700be
:10115c0010002000b0408800c202a9000200370035
:10116c0020012000b04088000080fa00000006003a
:10117c000000fa0018c8bf008080fb00938120009b
:10118c0093417800c2a8200003f178000040e800e9
:10119c0018e8b70019c8bf000080fb00e40f50002e
:1011ac001b003200e40f500007003c00e20f50001f
:1011bc0011003200e20f500012003c00e10f500011
:1011cc000a00320021003700e60f500016003200f2
:1011dc00e60f500011003500ef0f500015003200e3
:1011ec00f00f5000160032001800370020002000cd
:1011fc00b04088001800370020002000b040880064
:10120c001500370020002000b04088001200370085
:10121c0020002000b04088000f0037006000200044
:10122c00b04088000c003700c0002000b04088009f
:10123c000900370020012000b0408800060037006c
:10124c0020012000b040880003003700200120005e
:10125c00b0408800000000000080fa00000006008a
:10126c000000fa0018c8bf008080fb0093812000aa
:10127c0093417800c2a8200003f178000040e800f8
:10128c0018e8b70030002000b040880010c0b30050
:10129c0032e8b7000080fa00000006000000fa00f7
:1012ac0018c8bf008080fb00938120009341780018
:1012bc00c2a8200003f178000040e80018e8b7004d
:1012cc00e0a820009040780032c8bf0080cf5000ca
:1012dc0002003a0040002000b040880032c8bf0035
:1012ec000040e80032e8b7000080fa000000060079
:1012fc000000fa0018c8bf008080fb00938120001a
:10130c0093417800c2a8200003f178000040e80067
:10131c0018e8b70050002000b04088000080fa00a8
:10132c00000006000000fa0018c8bf008080fb0017
:10133c009381200093417800c2a8200003f178002b
:10134c000040e80018e8b70020012000b0408800f9
:10135c0018c8bf000080fb0080007800c0a82000e7
:10136c00830407000000e0007b003a0010168000a8
:10137c006100600000f0a7000000ea000000e90036
:10138c004f00de00004078000080fb006100600030
:10139c00111680000100a1000100700010168800d9
:1013ac0010c0b30032e8b70066003700d0a82000a8
:1013bc00104078000080fb00e20f50001f0032004c
:1013cc00e20f500003003c00e10f50000600320019
:1013dc0059003700e30f50002d003200e40f50008d
:1013ec004000320054003700c0a8200010407800a4
:1013fc000080fb0021832000914078008181fb005c
:10140c0021832000914078008180fb008180e800de
:10141c00c2a82000e2c078000181fb006600b90080
:10142c00000078000300400080004000c0992000bc
:10143c0000804000020878003f003700c0a8200060
:10144c00104078000080fb00218320009140780040
:10145c008181fb0021832000914078008180fb007a
:10146c008180e800c2a82000e2c078000181fb0066
:10147c006600b900000078000300400080004000c6
:10148c0040a1200000804000020878002a003700ac
:10149c00c0a82000104078000080fb0021832000b1
:1014ac00914078008181fb002183200091407800dd
:1014bc008180fb008180e800c2a82000e2c0780097
:1014cc000181fb006600b9000000780003004000b9
:1014dc00800040004092200000804000020878000c
:1014ec0015003700c0a82000104078000080fb00d9
:1014fc0021832000914078008181fb002183200012
:10150c00914078008180fb008180e800c2a8200017
:10151c00e2c078000181fb006600b9000000780091
:10152c0003004000800040004092200000804000fa
:10153c00020878000000000032c8bf000040e8003c
:10154c0032e8b700d0a820009040780032c8bf0025
:10155c0080cf500095ff32000080fa00000006009a
:10156c000000fa0018c8bf008080fb0093812000a7
:10157c0093417800c2a8200003f178000040e800f5
:10158c0018e8b70019c8bf0001e8b70070002000c8
:10159c00b04088000080fa00000006000000fa004d
:1015ac0018c8bf008080fb00938120009341780015
:1015bc00c2a8200003f178000040e80018e8b7004a
:1015cc0019c8bf0000e8b70080002000b0408800b8
:1015dc000080fa00000006000000fa0018c8bf00e6
:1015ec008080fb009381200093417800c2a82000ea
:1015fc0003f178000040e80018e8b70019c8bf00f4
:10160c0003e8b70090002000b04088000080fa008a
:10161c00000006000000fa0018c8bf008080fb0024
:10162c009381200093417800c2a8200003f1780038
:10163c000040e80018e8b70019c8bf0002e8b7007e
:10164c00a0002000b04088000080fa0000000600d6
:10165c000000fa0018c8bf008080fb0093812000b6
:10166c0093417800c2a8200003f178000040e80004
:10167c0018e8b70019c8bf0005e8b700b000200093
:10168c00b04088000080fa00000006000000fa005c
:10169c0018c8bf008080fb00938120009341780024
:1016ac00c2a8200003f178000040e80018e8b70059
:1016bc0019c8bf0004e8b70020012000b040880022
:1016cc0018c8bf000080fb0080007800c0a8200074
:1016dc00a70307000000e00015003a0010c0b3009b
:1016ec0007e8b7003268ef000e00370032c8bf00c1
:1016fc000080fb00c1a82000e140780032c8bf0088
:10170c000080fb0002af20006240780080cf5000c8
:10171c00010032000768ef0032c8bf000040e8004b
:10172c0032e8b70032c8bf00e74f5000efff32007d
:10173c000080fa00000006000000fa0018c8bf0084
:10174c008080fb009381200093417800c2a8200088
:10175c0003f178000040e80018e8b700d000200042
:10176c00b04088000080fa00000006000000fa007b
:10177c0018c8bf008080fb00938120009341780043
:10178c00c2a8200003f178000040e80018e8b70078
:10179c00e0002000b04088000080fa000000060045
:1017ac000000fa0018c8bf008080fb009381200065
:1017bc0093417800c2a8200003f178000040e800b3
:1017cc0018e8b700f0002000b04088000080fa0054
:1017dc00000006000000fa0018c8bf008080fb0063
:1017ec009381200093417800c2a8200003f1780077
:1017fc000040e80018e8b70000012000b040880065
:10180c000080fa00000006000000fa0018c8bf00b3
:10181c008080fb009381200093417800c2a82000b7
:10182c0003f178000040e80018e8b7001001200030
:10183c00b04088000080fa00000006000000fa00aa
:10184c0018c8bf008080fb00938120009341780072
:10185c00c2a8200003f178000040e80018e8b700a7
:10186c0020012000b040880018c8bf000080fb0099
:10187c0080007800c0a820003d0307000000e000b5
:10188c0015003a0010c0b30007e8b7003268ef004b
:10189c000e00370032c8bf000080fb00c1a820003a
:1018ac00e140780032c8bf000080fb0002af20008e
:1018bc006240780080cf5000010032000768ef00d2
:1018cc0032c8bf000040e80032e8b70032c8bf00a1
:1018dc00e74f5000efff32000080fa0000000600d6
:1018ec000000fa000080fa00000006000000fa0078
:1018fc000080fa00000006000a00fa004047980039
:10190c00514798003207980043079800be0090009a
:10191c00010f7800ce0090001107980000af200056
:10192c00ce4090000148780010af2000de409000bf
:10193c00014878009e40900020af200001487800bc
:10194c009e40780030af200001487800be409000e7
:10195c0040af200001487800ae40900050af20000e
:10196c00014878006100200000af20000003070050
:10197c0020408800418020009140780060af20001a
:10198c0001487800518020009140780070af200011
:10199c000148780080c0b30014e8b70000af200005
:1019ac009040880090408000104078000080fb0040
:1019bc00a01188000080fa00000006000a00fa005e
:1019cc004047980051479800320798004307980009
:1019dc00be009000010f78004e0190001207980095
:1019ec0000af2000ce4090000148780010af2000de
:1019fc005e419000024878009e40900020af20008d
:101a0c00014878009e40780030af200001487800f3
:101a1c00be40900040af200001487800ae409000de
:101a2c0050af2000014878006100200000af20007a
:101a3c00cf020700204088004180200091407800b0
:101a4c0060af200001487800518020009140780060
:101a5c0070af20000148780080c0b30014e8b700d4
:101a6c0000af2000904088004e4190006180200023
:101a7c008248780090408000104078000080fb0085
:101a8c00a01188000080fa00000006000000fa0097
:101a9c001e00370040408000b1118000814078006a
:101aac00014878004140800050b62000808f5000e3
:101abc0009003200404080008000e8005040800067
:101acc00808f500004003200404080000000e8008d
:101adc00404088000d0037004140800050b6200087
:101aec00808f500007003a0051408000d0b5200094
:101afc00808f500003003200d0b520004040880099
:101b0c000200370010c0b30010e8b700901180003d
:101b1c00610060000000e000deff3a0087c0a90011
:101b2c000080fa00000006000200fa000040eb0002
:101b3c00004f7800000000005140800040408000c1
:101b4c00808f5000fcff320050408000104f780016
:101b5c00504080000000e800504088005140800058
:101b6c0060b62000808f500002003a00d0b52000f3
:101b7c00504088001e4078000080fa0000000600eb
:101b8c000200fa00004f7800000000001c00070063
:101b9c000004a2000004e000fcff3a00604080005a
:101bac001e487800604080000000e800604088001b
:101bbc0061408000d0b52000808f500002003a00b8
:101bcc0040b520006040880097e0a8000080fa0033
:101bdc00000006000000fa005140800040408000e8
:101bec000080680000f0a7000000ea000000ea0096
:101bfc004f00de00004078000080fa000000060074
:101c0c000400fa00714080001107980061408000c8
:101c1c001e009000808f5000060031009e00900046
:101c2c0060408000008050000000e900000f780048
:101c3c00050037009e00900060408000008050003e
:101c4c0068004000000f78001e00780000f0a7002c
:101c5c000000ea000000ea004f00de0000407800bf
:101c6c000080fa00000006000000fa0061408000cd
:101c7c0070408000808f500009003a009111800064
:101c8c00001020000080600000f0a7000000ea00b7
:101c9c000000ea004f00de00004078000100370031
:101cac000040eb000080fa00000006000400fa007f
:101cbc004140800011079800504080009e00900029
:101ccc00808f5000060031009e0090005040800034
:101cdc000080500069004000000f780004003700bd
:101cec009e0090005040800000805000000f780053
:101cfc00f00f20009e007800808f5000020036000c
:101d0c0000c0eb00020037001e0078000040780095
:101d1c000080fa00000006000400fa007140800008
:101d2c0011079800614080001e009000808f5000c9
:101d3c00060031009e009000604080000080500042
:101d4c000000e900000f7800050037009e009000ad
:101d5c00604080000080500068004000000f780058
:101d6c00f00f20009e007800808f5000020036009b
:101d7c0000c0eb00020037001e0078000040780025
:101d8c000080fa00000006000800fa002007980006
:101d9c0031079800c5ff07000080fb00000f78009a
:101dac003e0090009e0f500002003100be009000db
:101dbc00010f78000000eb001007980009003700b5
:101dcc0059ff0700ae009000804878002e0090006c
:101ddc000000e800200798001e0090000000e800ba
:101dec00100798001e0090009e0f5000f4ff390061
:101dfc001e0078000080fa00000006000800fa00bf
:101e0c002007980031079800c3ff07000080fb00f3
:101e1c00000f78003e0090009e0f50000200310031
:101e2c00be009000010f78000000eb001007980036
:101e3c00090037002e00900010407800ae00900092
:101e4c008100e800210798004dff07001e0090005c
:101e5c000000e800100798001e0090009e0f500034
:101e6c00f4ff39001e0078000080fa000000060024
:101e7c000400fa000000eb00000f78008bff070055
:101e8c0020479800a4ff0700304798002e40900090
:101e9c000080fb000000e00003003200e90f50005e
:101eac0003003200040037001e20a000040037009d
:101ebc001e00a000020037001e10a0000000000051
:101ecc003e4090000080fb000000e0000300320068
:101edc00e90f500003003200040037001e30a00050
:101eec00020037001e40a000000000001e00780019
:101efc000080fa00000006000400fa0010079800a9
:101f0c00514080001e009000008f400002003700fe
:101f1c009e007800698f500060b620009e0078000b
:101f2c00808f5000faff3e001e00780010407800b1
:101f3c000080fa00000006000000fa005bff0700ba
:101f4c000080fb000000e9004f00de00004078003c
:101f5c000080fa00000006000000fa006eff070087
:101f6c000080fb000000e9004f00de00004078001c
:101f7c000080fa00000006000000fa0090118000ba
:101f8c000080fa00000006000000fa0062ff070063
:101f9c000004e0000f0032007140800060408000bf
:101fac00808f500005003600704080008000780063
:101fbc0060408000008050000700370070408000b7
:101fcc008000780060408000008050006900400074
:101fdc00010037000000eb000080fa000000060052
:101fec000000fa0031ff07000004e0000f0032008f
:101ffc005140800040408000808f5000050036002a
:10200c0050408000800078004040800000805000ec
:10201c00070037005040800080007800404080006e
:10202c000080500069004000010037000000eb0008
:10203c000080fa00000006000000fa0031e2a8005f
:10204c003342a8000080fa00000006000000fa00ed
:10205c0031e2a9003342a9000080fa00000006001a
:020000040000fa
:10206c00760c000002000000000000002e080000aa
:10207c000200000000000000560c000020000000d0
:10208c000000000030080000020000000200000008
:10209c00ffff0000660b0000f000000002000000d3
:1020ac009008be000836090054097e000998090002
:1020bc00b60ad4000af20a00100b2e000b4c0b00cf
:1020cc00a20bbc000bd60b00f00b0a000c240c006e
:1020dc00760c000000000000000000000000000072
:1020ec0000000000000000000000000000000000e4
:1020fc0000000000000000000000000000000000d4
:10210c0000000000000000000000000000000000c3
:10211c0000000000000000000000000000000000b3
:10212c0000000000000000000000000000000000a3
:10213c000000000000000000000000000000000093
:10214c000000000000000000000000000000000083
:10215c000000000000000000000000000000000073
:10216c000000000000000000000000000000000063
:10217c000000000000000000000000000000000053
:10218c000000000000000000000000000000000043
:10219c000000000000000000000000000000000033
:1021ac000000000000000000000000000000000023
:1021bc000000000000000000000000000000000013
:1021cc000000000000000000000000000000000003
:1021dc0000000000000000000000000000000000f3
:1021ec00340800003203000000000000000800006a
:1021fc001e00000000000000320800000200000079
:10220c0002000000010000001e0800000600000093
:10221c00000000002408000006000000020000007e
:10222c0001000100000100002a0800000400000069
:08223c0000000000000000009a
:020000040000fa
:102244000000fa000021ef00300e20001008880082
:102254000003280020088800704180000000e0008e
:1022640002003a00c0172100250007008460a9007d
:102274009460a80060c720008040eb00014878000b
:1022840011e1a8000080fa00000006000200fa0034
:10229400000f78009e0078001108880060c72000b5
:1022a4008040eb00014878000080fa00000006003e
:1022b4000000fa00100880000080fa000000060008
:1022c4000200fa00000f78009e00780001088800e0
:1022d40060c720008040eb00014878000080fa00cd
:1022e400000006000000fa00000880000080fa00e8
:1022f400000006000000fa000080fa00000006005a
:102304000200fa00000f78009460a9009e00780093
:10231400714188009460a8000080fa000000060063
:102324000000fa0060c720008040eb0001487800fc
:102334009460a80005e1a8000080fa0000000600ef
:102344000000fa0005e1a9009460a9000080fa00e9
:10235400000006000200fa0060c72000104f780059
:102364001e4078000004e0000300320060c7200033
:102374008040eb00014878001e4078000080fa009d
:10238400000006000000fa0070c72000104078002a
:102394000080fb000080fa00000006000000fa0044
:1023a40070c720008040eb00014878000080fa00ec
:1023b400000006000000fa0043c7bf008080fb0055
:1023c400800f20000081600080072000a109200008
:1023d400337420008049780081497800824978006c
:1023e400103a80004c00de00e7406000103a8000a4
:1023f4004800de006740600080cf500013003200c8
:1024040042c7bf000081fb0060042000710520006a
:10241400237420008049780081497800824978003b
:1024240000000000103a8000610060000000e0003d
:10243400fcff3a0000000000113a80000002200076
:10244400008060000000e000fbff32000000230079
:10245400203a88004827ef007027ef007227ef002a
:102464007427ef001200200080072000a10920003b
:1024740033742000804978008149780082497800cb
:102484001200200060042000710520002374200045
:102494008049780081497800824978000080fa00f8
:1024a400000006000000fa00c422ef00000025002e
:1024b40060168800c022ef0010cf2a004016880062
:1024c4006820ef006a20ef00c622ef00ce22ef0062
:1024d40070e3210060198800113a8000f00b20009d
:1024e4000081600060042000710520002374200036
:1024f40080497800814978008249780061368000fb
:1025040000fe2f00008060005000b3006036880099
:102514003135800000fe2f0000806000d000b30041
:10252400303588007136800000fe2f000080600086
:102534003000b300703688002135800000fe2f0083
:1025440000806000f000b30020358800103a80005d
:10255400000178000260a0006004200071052000e2
:1025640023742000804978008149780082497800ea
:102574000080fa00000006000800fa002007980016
:10258400310798000080eb00000f7800130037003b
:102594002e009000904078001e00780000407800e3
:1025a40000c06800204798002e0090000000e8005a
:1025b400200798001e0078004800de00000f780015
:1025c4002e4090000080fb008000400060612800e5
:1025d40000804000100078001e0f68003e0090004c
:1025e40000f0a7000000ea000000ea004f00de004f
:1025f40000407800be0090008100e9003107980097
:102604000004e000e2ff3a001e0078000080fa00b7
:10261400000006000000fa0021068000f08f2f0061
:10262400008060000080a0002006880091058000e2
:10263400f0ff28000080600000c0a0009005880022
:1026440091058000f08f2f00008060000080a000c2
:102654009005880021058000f0ff280000806000bc
:1026640000c0a0002005880021068000f0f82f009b
:10267400008060000040a000200688005105800012
:1026840080ff2f00008060000000a000500588003b
:1026940041058000f0ff28000080600000c0a00019
:1026a400400588000080fa00000006000000fa00df
:1026b4007cff0700d7ff07003eff0700d5ff070098
:1026c4001200070058fa07001b000700dcfe070091
:1026d4002f000700dafe07000080fa000000060061
:1026e400000f78009e00780081418800ffff3700ca
:1026f4000000fa0060c5200080077800e0c62000d2
:10270400000188000080fa00000006000000fa00c2
:1027140080002000001188002222ef00001a20000f
:10272400401188009560a80021e2a8002342a80077
:102734000080fa00000006000000fa000621ef0005
:10274400300d2300600888000002280080088800fb
:1027540084e0a90094e0a80011e1a8000080fa0038
:10276400000006000000fa00d0ff0700500020001f
:1027740020498800a000200030498800ffff37006e
:102784000000fa000bff07000080fa0000000600ba
:0c2794000000fa000080fa0000000600bf
:020000040000fa
:020000040001f9
:0457f8001f79000015
:020000040000fa
:020000040001f9
:0457fc00fd3d00006f
:00000001FF
