:020000040000fa
:080000000002040000000000f2
:020000040000fa
:040008006a04000086
:020000040000fa
:04000c00a603000047
:020000040000fa
:04001000b803000031
:020000040000fa
:04001400ae03000037
:020000040000fa
:04001800c003000021
:020000040000fa
:04001c006a04000072
:020000040000fa
:040020006a0400006e
:020000040000fa
:040024006a0400006a
:020000040000fa
:040028006a04000066
:020000040000fa
:04002c006a04000062
:020000040000fa
:040030006a0400005e
:020000040000fa
:040034007003000055
:020000040000fa
:040038006a04000056
:020000040000fa
:04003c006a04000052
:020000040000fa
:040040006a0400004e
:020000040000fa
:04004400560400005e
:020000040000fa
:040048006a04000046
:020000040000fa
:04004c006a04000042
:020000040000fa
:040050006a0400003e
:020000040000fa
:04005400d0030000d5
:020000040000fa
:04005800c8030000d9
:020000040000fa
:04005c006a04000032
:020000040000fa
:040060006a0400002e
:020000040000fa
:040064006a0400002a
:020000040000fa
:040068006a04000026
:020000040000fa
:04006c006a04000022
:020000040000fa
:040070006a0400001e
:020000040000fa
:040074006a0400001a
:020000040000fa
:040078006a04000016
:020000040000fa
:04007c006a04000012
:020000040000fa
:040080006a0400000e
:020000040000fa
:040084006a0400000a
:020000040000fa
:040088006a04000006
:020000040000fa
:04008c006a04000002
:020000040000fa
:040090006a040000fe
:020000040000fa
:040094006a040000fa
:020000040000fa
:040098006a040000f6
:020000040000fa
:04009c006a040000f2
:020000040000fa
:0400a0001204000046
:020000040000fa
:0400a400ec03000069
:020000040000fa
:0400a8006a040000e6
:020000040000fa
:0400ac006a040000e2
:020000040000fa
:0400b0006a040000de
:020000040000fa
:0400b4006a040000da
:020000040000fa
:0400b8006a040000d6
:020000040000fa
:0400bc006a040000d2
:020000040000fa
:0400c0006a040000ce
:020000040000fa
:0400c4006a040000ca
:020000040000fa
:0400c8006a040000c6
:020000040000fa
:0400cc006a040000c2
:020000040000fa
:0400d0006a040000be
:020000040000fa
:0400d4006a040000ba
:020000040000fa
:0400d8006a040000b6
:020000040000fa
:0400dc006a040000b2
:020000040000fa
:0400e0006a040000ae
:020000040000fa
:0400e4006a040000aa
:020000040000fa
:0400e8006a040000a6
:020000040000fa
:0400ec006a040000a2
:020000040000fa
:0400f0006a0400009e
:020000040000fa
:0400f4006a0400009a
:020000040000fa
:0400f8006a04000096
:020000040000fa
:0400fc006a04000092
:020000040000fa
:040100006a0400008d
:020000040000fa
:040104006a04000089
:020000040000fa
:040108006a04000085
:020000040000fa
:04010c006a04000081
:020000040000fa
:040110006a0400007d
:020000040000fa
:040114006a04000079
:020000040000fa
:040118006a04000075
:020000040000fa
:04011c006a04000071
:020000040000fa
:040120006a0400006d
:020000040000fa
:040124006a04000069
:020000040000fa
:040128006a04000065
:020000040000fa
:04012c00d6030000f6
:020000040000fa
:040130004004000087
:020000040000fa
:040134006a04000059
:020000040000fa
:040138006a04000055
:020000040000fa
:04013c006a04000051
:020000040000fa
:040140006a0400004d
:020000040000fa
:040144006a04000049
:020000040000fa
:040148006a04000045
:020000040000fa
:040208006a04000084
:020000040000fa
:04020c00a603000045
:020000040000fa
:04021000b80300002f
:020000040000fa
:04021400ae03000035
:020000040000fa
:04021800c00300001f
:020000040000fa
:04021c006a04000070
:020000040000fa
:040220006a0400006c
:020000040000fa
:040224006a04000068
:020000040000fa
:040228006a04000064
:020000040000fa
:04022c006a04000060
:020000040000fa
:040230006a0400005c
:020000040000fa
:040234007003000053
:020000040000fa
:040238006a04000054
:020000040000fa
:04023c006a04000050
:020000040000fa
:040240006a0400004c
:020000040000fa
:04024400560400005c
:020000040000fa
:040248006a04000044
:020000040000fa
:04024c006a04000040
:020000040000fa
:040250006a0400003c
:020000040000fa
:04025400d0030000d3
:020000040000fa
:04025800c8030000d7
:020000040000fa
:04025c006a04000030
:020000040000fa
:040260006a0400002c
:020000040000fa
:040264006a04000028
:020000040000fa
:040268006a04000024
:020000040000fa
:04026c006a04000020
:020000040000fa
:040270006a0400001c
:020000040000fa
:040274006a04000018
:020000040000fa
:040278006a04000014
:020000040000fa
:04027c006a04000010
:020000040000fa
:040280006a0400000c
:020000040000fa
:040284006a04000008
:020000040000fa
:040288006a04000004
:020000040000fa
:04028c006a04000000
:020000040000fa
:040290006a040000fc
:020000040000fa
:040294006a040000f8
:020000040000fa
:040298006a040000f4
:020000040000fa
:04029c006a040000f0
:020000040000fa
:0402a0001204000044
:020000040000fa
:0402a400ec03000067
:020000040000fa
:0402a8006a040000e4
:020000040000fa
:0402ac006a040000e0
:020000040000fa
:0402b0006a040000dc
:020000040000fa
:0402b4006a040000d8
:020000040000fa
:0402b8006a040000d4
:020000040000fa
:0402bc006a040000d0
:020000040000fa
:0402c0006a040000cc
:020000040000fa
:0402c4006a040000c8
:020000040000fa
:0402c8006a040000c4
:020000040000fa
:0402cc006a040000c0
:020000040000fa
:0402d0006a040000bc
:020000040000fa
:0402d4006a040000b8
:020000040000fa
:0402d8006a040000b4
:020000040000fa
:0402dc006a040000b0
:020000040000fa
:0402e0006a040000ac
:020000040000fa
:0402e4006a040000a8
:020000040000fa
:0402e8006a040000a4
:020000040000fa
:0402ec006a040000a0
:020000040000fa
:0402f0006a0400009c
:020000040000fa
:0402f4006a04000098
:020000040000fa
:0402f8006a04000094
:020000040000fa
:0402fc006a04000090
:020000040000fa
:040300006a0400008b
:020000040000fa
:040304006a04000087
:020000040000fa
:040308006a04000083
:020000040000fa
:04030c006a0400007f
:020000040000fa
:040310006a0400007b
:020000040000fa
:040314006a04000077
:020000040000fa
:040318006a04000073
:020000040000fa
:04031c006a0400006f
:020000040000fa
:040320006a0400006b
:020000040000fa
:040324006a04000067
:020000040000fa
:040328006a04000063
:020000040000fa
:04032c00d6030000f4
:020000040000fa
:040330004004000085
:020000040000fa
:040334006a04000057
:020000040000fa
:040338006a04000053
:020000040000fa
:04033c006a0400004f
:020000040000fa
:040340006a0400004b
:020000040000fa
:040344006a04000047
:020000040000fa
:040348006a04000043
:020000040000fa
:10040000cfa420000e7f22000e0188000000000013
:10041000000020000000e000020032000001200087
:1004200020028800140007002c0107000000e000f3
:1004300003003a00202221000100200002003700c2
:100440000000200001002000810f70000100320038
:1004500014000700000020000000e000020032004d
:1004600000000200000000004a1502000000000029
:100470000040da000000fe004440a90000202000f7
:100480000000e0000300320000002000a00188000e
:100490004440a800000006008a1f78008b1f7800e7
:1004a0000000060091018800800478000000eb0045
:1004b0001a003700e284440032a0b4009905ba0063
:1004c000e284440032a0b4009906ba00e2844400f9
:1004d00032a0b4000006eb00476fde00fd07b2005b
:1004e000636ce10003003a00ebff07000000eb0043
:1004f0000a003700606ce10004003a00005deb0088
:100500008b05e900fdff3e00040037006168e10053
:10051000010032000086eb000b00070019c7ba008b
:100520001905ba000e04e00003003a000a00e000da
:10053000e0ff3a0000000600fe07b2009e018800be
:100540008a047800f5ff3700395dba008b05e900b1
:100550000c003200295dba008b05e900080032006a
:100560000c00e00003003a00e284440032a0b40032
:10057000f5ff370019ddba008b05e900faff3a00f4
:100580008904e800e184440032a0b40000000600c1
:10059000000000000000000000000000000000005b
:1005a000000000000000000000000000000000004b
:1005b000000000000000000000000000000000003b
:1005c000000000000000000000000000000000002b
:1005d000000000000000000000000000000000001b
:1005e000000000000000000000000000000000000b
:1005f00000000000000000000000000000000000fb
:1006000000000000000000000000000000000000ea
:1006100000000000000000000000000000000000da
:1006200000000000000000000000000000000000ca
:1006300000000000000000000000000000000000ba
:1006400000000000000000000000000000000000aa
:10065000000000000000000000000000000000009a
:10066000000000000000000000000000000000008a
:10067000000000000000000000000000000000007a
:10068000000000000000000000000000000000006a
:10069000000000000000000000000000000000005a
:1006a000000000000000000000000000000000004a
:1006b000000000000000000000000000000000003a
:1006c000000000000000000000000000000000002a
:1006d000000000000000000000000000000000001a
:1006e0003600f800809fbe00829fbe00849fbe003f
:1006f000869fbe000000fa00204180000000e0005c
:10070000020032002041800000000100b0a420005f
:10071000104078008040e800b0a420000148780034
:10072000a0a4200011c0b300014878008460a90093
:100730000080fa004f03be004f02be004f01be0012
:100740004f00be003600f900004006003600f800f9
:100750008020a9000000eb009e0807003600f8008a
:10076000a00807008040a900100020009908070099
:100770003600f8008060a9002000200095080700de
:100780003600f8008080a9003000200091080700a2
:100790000000fa008580a9000080fa0000400600f1
:1007a0000000fa000080fa0000400600801f780078
:1007b0000000fa0010118000620060000000e000fc
:1007c000010032002222a9008c20a9000080fa003a
:1007d0004f00780000400600801f78000000fa00fb
:1007e000a04080000000e800a040880016c8bf00bc
:1007f0000040e90016e8b70016c8bf000004e0009a
:1008000004003200a0408000104078000080fb000f
:10081000a011880087e0a9000080fa004f0078004e
:10082000004006003600f800809fbe00829fbe0098
:10083000849fbe00869fbe000000fa000621ef00e4
:10084000b01180000040780022e8b700c04080006e
:1008500080004000a092200000804000100078003e
:10086000000001000080fa004f03be004f02be00ee
:100870004f01be004f00be003600f90000400600e8
:10088000801f78000000fa00901180006200600074
:100890000000e000010032003222a9008c40a900d3
:1008a0000080fa004f00780000400600801f7800aa
:1008b0000200fa0010c6b300004f78001e00fb00d3
:1008c0002011880084e0a9000080fa004f00780021
:1008d000004006000040da000000fe0000000500b5
:020000040000fa
:1008e00000000000c1c0000081c100004001000004
:1008f00001c30000c00300008002000041c20000ec
:1009000001c60000c00600008007000041c70000cb
:1009100000050000c1c5000081c4000040040000c3
:1009200001cc0000c00c0000800d000041cd000093
:10093000000f0000c1cf000081ce0000400e00007b
:10094000000a0000c1ca000081cb0000400b00007b
:1009500001c90000c00900008008000041c8000073
:1009600001d80000c01800008019000041d9000023
:10097000001b0000c1db000081da0000401a00000b
:10098000001e0000c1de000081df0000401f0000eb
:1009900001dd0000c01d0000801c000041dc0000e3
:1009a00000140000c1d4000081d5000040150000f3
:1009b00001d70000c01700008016000041d60000db
:1009c00001d20000c01200008013000041d30000db
:1009d00000110000c1d1000081d0000040100000d3
:1009e00001f00000c03000008031000041f1000043
:1009f00000330000c1f3000081f20000403200002b
:100a000000360000c1f6000081f70000403700000a
:100a100001f50000c03500008034000041f4000002
:100a2000003c0000c1fc000081fd0000403d0000d2
:100a300001ff0000c03f0000803e000041fe0000ba
:100a400001fa0000c03a0000803b000041fb0000ba
:100a500000390000c1f9000081f8000040380000b2
:100a600000280000c1e8000081e9000040290000e2
:100a700001eb0000c02b0000802a000041ea0000ca
:100a800001ee0000c02e0000802f000041ef0000aa
:100a9000002d0000c1ed000081ec0000402c0000a2
:100aa00001e40000c02400008025000041e50000b2
:100ab00000270000c1e7000081e60000402600009a
:100ac00000220000c1e2000081e30000402300009a
:100ad00001e10000c02100008020000041e0000092
:100ae00001a00000c06000008061000041a1000082
:100af00000630000c1a3000081a20000406200006a
:100b000000660000c1a6000081a700004067000049
:100b100001a50000c06500008064000041a4000041
:100b2000006c0000c1ac000081ad0000406d000011
:100b300001af0000c06f0000806e000041ae0000f9
:100b400001aa0000c06a0000806b000041ab0000f9
:100b500000690000c1a9000081a8000040680000f1
:100b600000780000c1b8000081b9000040790000a1
:100b700001bb0000c07b0000807a000041ba000089
:100b800001be0000c07e0000807f000041bf000069
:100b9000007d0000c1bd000081bc0000407c000061
:100ba00001b40000c07400008075000041b5000071
:100bb00000770000c1b7000081b600004076000059
:100bc00000720000c1b2000081b300004073000059
:100bd00001b10000c07100008070000041b0000051
:100be00000500000c19000008191000040510000c1
:100bf00001930000c05300008052000041920000a9
:100c000001960000c0560000805700004197000088
:100c100000550000c1950000819400004054000080
:100c2000019c0000c05c0000805d0000419d000050
:100c3000005f0000c19f0000819e0000405e000038
:100c4000005a0000c19a0000819b0000405b000038
:100c500001990000c0590000805800004198000030
:100c600001880000c0480000804900004189000060
:100c7000004b0000c18b0000818a0000404a000048
:100c8000004e0000c18e0000818f0000404f000028
:100c9000018d0000c04d0000804c0000418c000020
:100ca00000440000c1840000818500004045000030
:100cb00001870000c0470000804600004186000018
:100cc00001820000c0420000804300004183000018
:100cd00000410000c1810000818000004040000010
:020000040000fa
:100ce0000000fa0097e0a90097c0a900800020004a
:100cf000801188003222ef00001a2000c011880005
:100d00008091200080408800809120007040880001
:100d1000109220006040880010922000504088000f
:100d20001268ef00006b20000700070080f320002e
:100d30002d00070097c0a80031e2a8003342a800a8
:100d40000080fa00000006000200fa00000f7800a0
:100d50001e007800f04088000080fa0000000600c5
:100d60000000fa008140800070408000808f5000b9
:100d700002003a0097e0a9001900370087e0a900b7
:100d80001000370080408000904078008180fb0098
:100d9000a11188000000e8008040880081408000a8
:100da00010922000808f500002003a0080912000b5
:100db000804088008140800070408000808f50001b
:100dc00006003200911180000020200000806000a9
:100dd0000000e000ebff32000100370000000000df
:100de0000080fa00000006000200fa00000f780000
:100df0001e007800004188000080fa000000060014
:100e00000000fa00b1812000914078001cc8bf00aa
:100e100080cf50000c003a001a68ef001ac8bf00db
:100e20008080fb00b3812000934178000285200080
:100e300003f178000040e8001ae8b7001000200035
:100e4000c04088000200370060022000c0408800d7
:100e50000080fa00000006000000fa001ac8bf0077
:100e60008080fb00b3812000934178000285200040
:100e700003f178000040e8001ae8b7001bc8bf0083
:100e80000080fb00e40f50001b003200e40f500014
:100e900007003c00e20f500011003200e20f50004a
:100ea00012003c00e10f50000a0032002100370020
:100eb000e60f500016003200e60f5000110035001a
:100ec000ef0f500015003200f00f500016003200f6
:100ed0001800370020002000c040880018003700ac
:100ee00080002000c040880015003700e00020008e
:100ef000c04088001200370040012000c040880038
:100f00000f003700a0012000c04088000c0037000f
:100f100000022000c0408800090037006002200065
:100f2000c04088000600370060022000c0408800f2
:100f30000300370060022000c0408800000000006d
:100f40000080fa00000006000000fa001ac8bf0086
:100f50008080fb00b381200093417800028520004f
:100f600003f178000040e8001ae8b7001bc8bf0092
:100f700001e8b70030002000c04088000080fa007f
:100f8000000006000000fa001ac8bf008080fb00c5
:100f9000b3812000934178000285200003f178009e
:100fa0000040e8001ae8b7001bc8bf0000e8b7001f
:100fb00040002000c04088000080fa0000000600c9
:100fc0000000fa001ac8bf008080fb00b381200037
:100fd000934178000285200003f178000040e8008a
:100fe0001ae8b7001bc8bf0003e8b7005000200094
:100ff000c04088000080fa00000006000000fa00ef
:101000001ac8bf008080fb00b381200093417800a4
:101010000285200003f178000040e8001ae8b700dc
:101020001bc8bf0002e8b70060002000c040880075
:101030000080fa00000006000000fa001ac8bf0095
:101040008080fb00b381200093417800028520005e
:1010500003f178000040e8001ae8b7001bc8bf00a1
:1010600005e8b70070002000c04088000080fa004a
:10107000000006000000fa001ac8bf008080fb00d4
:10108000b3812000934178000285200003f17800ad
:101090000040e8001ae8b7001bc8bf0004e8b7002a
:1010a00060022000c04088001ac8bf000080fb001a
:1010b0008000780000852000080607000000e0009e
:1010c00030003a00101680006100600000f0a700b8
:1010d0000000ea000000e9004f00de000040780058
:1010e0000080fb0061006000111680000100a1007b
:1010f00001007000101688000085200090407800e4
:10110000408b200001487800108520009040780036
:10111000508b200001487800608b200011c0b30084
:10112000014878006180200091407800708b200099
:101130000148780041002000408b2000e7050700af
:10114000204088004180200091407800808b200062
:10115000014878005180200091407800908b200059
:101160000148780060c0b30016e8b700408b20004b
:10117000a0408800a0408000104078000080fb0064
:10118000a01188000080fa00000006000000fa00ac
:101190001ac8bf008080fb00b38120009341780013
:1011a0000285200003f178000040e8001ae8b7004b
:1011b0001bc8bf0001e8b70090002000c0408800b5
:1011c0000080fa00000006000000fa001ac8bf0004
:1011d0008080fb00b38120009341780002852000cd
:1011e00003f178000040e8001ae8b7001bc8bf0010
:1011f00000e8b700a0002000c04088000080fa008e
:10120000000006000000fa001ac8bf008080fb0042
:10121000b3812000934178000285200003f178001b
:101220000040e8001ae8b7001bc8bf0003e8b70099
:10123000b0002000c04088000080fa0000000600d6
:101240000000fa001ac8bf008080fb00b3812000b4
:10125000934178000285200003f178000040e80007
:101260001ae8b7001bc8bf0002e8b700c0002000a2
:10127000c04088000080fa00000006000000fa006c
:101280001ac8bf008080fb00b38120009341780022
:101290000285200003f178000040e8001ae8b7005a
:1012a0001bc8bf0005e8b700d0002000c040880080
:1012b0000080fa00000006000000fa001ac8bf0013
:1012c0008080fb00b38120009341780002852000dc
:1012d00003f178000040e8001ae8b7001bc8bf001f
:1012e00004e8b70060022000c04088001ac8bf00b0
:1012f0000080fb0080007800008520007705070053
:101300000000e00030003a0010168000610060002c
:1013100000f0a7000000ea000000e9004f00de0036
:10132000004078000080fb00610060001116800022
:101330000100a10001007000101688000085200047
:1013400090407800408b20000148780010852000f4
:1013500090407800508b200001487800608b20007e
:1013600011c0b300014878008180200091407800ce
:10137000708b20000148780041002000408b200045
:1013800056050700204088004180200091407800e9
:10139000808b200001487800518020009140780027
:1013a000908b20000148780060c0b30016e8b700b9
:1013b000408b2000a0408800a040800010407800b2
:1013c0000080fb00a01188000080fa0000000600e9
:1013d0000000fa001ac8bf008080fb00b381200023
:1013e000934178000285200003f178000040e80076
:1013f0001ae8b7001bc8bf0001e8b700f0002000e2
:10140000c04088000080fa00000006000000fa00da
:101410001ac8bf008080fb00b38120009341780090
:101420000285200003f178000040e8001ae8b700c8
:101430001bc8bf0000e8b70000012000c0408800c2
:101440000080fa00000006000000fa001ac8bf0081
:101450008080fb00b381200093417800028520004a
:1014600003f178000040e8001ae8b7001bc8bf008d
:1014700003e8b70010012000c04088000080fa0097
:10148000000006000000fa001ac8bf008080fb00c0
:10149000b3812000934178000285200003f1780099
:1014a0000040e8001ae8b7001bc8bf0002e8b70018
:1014b00020012000c04088000080fa0000000600e3
:1014c0000000fa001ac8bf008080fb00b381200032
:1014d000934178000285200003f178000040e80085
:1014e0001ae8b7001bc8bf0005e8b70030012000ac
:1014f000c04088000080fa00000006000000fa00ea
:101500001ac8bf008080fb00b3812000934178009f
:101510000285200003f178000040e8001ae8b700d7
:101520001bc8bf0004e8b70060022000c04088006c
:101530001ac8bf000080fb008000780000852000f2
:10154000e60407000000e0003c003a0010168000ae
:101550006100600000f0a7000000ea000000e90060
:101560004f00de00004078000080fb00610060005a
:10157000111680000100a100010070001016880003
:101580000085200090407800408b200001487800c2
:101590001085200090407800508b20000148780092
:1015a000608b200041c0b30001487800d083200048
:1015b00090407800708b200001487800c0832000a4
:1015c00090407800808b200001487800f083200054
:1015d00090407800908b200001487800e083200044
:1015e00090407800a08b2000014878007100200016
:1015f000408b2000b9040700204088004180200073
:1016000091407800b08b2000014878005180200084
:1016100091407800c08b20000148780090c0b30052
:1016200016e8b700408b2000a0408800a040800052
:10163000104078000080fb00a01188000080fa00b4
:10164000000006000000fa001ac8bf008080fb00fe
:10165000b3812000934178000285200003f17800d7
:101660000040e8001ae8b7001bc8bf0001e8b70057
:1016700050012000c04088000080fa0000000600f1
:101680000000fa001ac8bf008080fb00b381200070
:10169000934178000285200003f178000040e800c3
:1016a0001ae8b7001bc8bf0000e8b70060012000bf
:1016b000c04088000080fa00000006000000fa0028
:1016c0001ac8bf008080fb00b381200093417800de
:1016d0000285200003f178000040e8001ae8b70016
:1016e0001bc8bf0003e8b70070012000c04088009d
:1016f0000080fa00000006000000fa001ac8bf00cf
:101700008080fb00b3812000934178000285200097
:1017100003f178000040e8001ae8b7001bc8bf00da
:1017200002e8b70080012000c04088000080fa0075
:10173000000006000000fa001ac8bf008080fb000d
:10174000b3812000934178000285200003f17800e6
:101750000040e8001ae8b7001bc8bf0005e8b70062
:1017600090012000c04088000080fa0000000600c0
:101770000000fa001ac8bf008080fb00b38120007f
:10178000934178000285200003f178000040e800d2
:101790001ae8b7001bc8bf0004e8b70060022000c9
:1017a000c04088001ac8bf000080fb00800078009d
:1017b00000852000490407000000e0003c003a00da
:1017c000101680006100600000f0a7000000ea0031
:1017d0000000e9004f00de00004078000080fb00c0
:1017e00061006000111680000100a100010070007e
:1017f000101688000085200090407800408b200063
:10180000014878001085200090407800508b20001f
:1018100001487800608b200041c0b3000148780087
:101820009082200090407800708b20000148780062
:101830008082200090407800808b20000148780052
:10184000b082200090407800908b20000148780002
:10185000a082200090407800a08b200001487800f2
:1018600071002000408b20001c04070020408800ed
:101870004180200091407800b08b20000148780022
:101880005180200091407800c08b200001487800f2
:1018900090c0b30016e8b700408b2000a04088003d
:1018a000a0408000104078000080fb00a01188005c
:1018b0000080fa00000006000000fa001ac8bf000d
:1018c0008080fb00b38120009341780002852000d6
:1018d00003f178000040e8001ae8b7001bc8bf0019
:1018e00001e8b700b0012000c04088000080fa0085
:1018f000000006000000fa001ac8bf008080fb004c
:10190000b3812000934178000285200003f1780024
:101910000040e8001ae8b7001bc8bf0000e8b700a5
:10192000c0012000c04088000080fa0000000600ce
:101930000000fa001ac8bf008080fb00b3812000bd
:10194000934178000285200003f178000040e80010
:101950001ae8b7001bc8bf0003e8b700d001200099
:10196000c04088000080fa00000006000000fa0075
:101970001ac8bf008080fb00b3812000934178002b
:101980000285200003f178000040e8001ae8b70063
:101990001bc8bf0002e8b700e0012000c04088007b
:1019a0000080fa00000006000000fa001ac8bf001c
:1019b0008080fb00b38120009341780002852000e5
:1019c00003f178000040e8001ae8b7001bc8bf0028
:1019d00005e8b700f0012000c04088000080fa0050
:1019e000000006000000fa001ac8bf008080fb005b
:1019f000b3812000934178000285200003f1780034
:101a00000040e8001ae8b7001bc8bf0004e8b700b0
:101a100060022000c04088001ac8bf000080fb00a0
:101a20008000780000852000ac0307000000e00083
:101a30006e003a0000408000e10f500011003200bb
:101a4000e10f500005003900e20f5000170032008e
:101a5000e30f50001f0032002f00370011408000bc
:101a600000f02f00808f500001003a00cc02a80047
:101a7000104080000000e00020003a00cc02a900e5
:101a8000250037001140800000f02f00808f5000ab
:101a900001003a00cc22a800104080000000e000c5
:101aa00018003a00cc22a9001b003700114080002a
:101ab00000f02f00808f500001003a00cc42a800b7
:101ac000104080000000e00010003a00cc42a90065
:101ad000110037001140800000f02f00808f50006f
:101ae00001003a00cc62a800104080000000e00035
:101af00008003a00cc62a90007003700000000008f
:101b0000050037000000000003003700000000005f
:101b10000100370000000000101680006100600026
:101b200000f0a7000000ea000000e9004f00de001e
:101b3000004078000080fb0061006000111680000a
:101b40000100a1000100700010168800008520002f
:101b500090407800408b20000148780010852000dc
:101b600090407800508b20000148780020852000ac
:101b700090407800608b200001487800308520007c
:101b800090407800708b200001487800408520004c
:101b900090407800808b200001487800508520001c
:101ba00090407800908b20000148780060852000ec
:101bb00090407800a08b20000148780070852000bc
:101bc00090407800b08b20000148780080c0b300be
:101bd00016e8b700408b2000a0408800a04080009d
:101be000104078000080fb00a01188000080fa00ff
:101bf000000006000000fa001ac8bf008080fb0049
:101c0000b3812000934178000285200003f1780021
:101c10000040e8001ae8b7001bc8bf0001e8b700a1
:101c200010022000c04088000080fa00000006007a
:101c30000000fa001ac8bf008080fb00b3812000ba
:101c4000934178000285200003f178000040e8000d
:101c50001ae8b7001bc8bf0000e8b7002002200048
:101c6000c04088000080fa00000006000000fa0072
:101c70001ac8bf008080fb00b38120009341780028
:101c80000285200003f178000040e8001ae8b70060
:101c90001bc8bf0003e8b70030022000c040880026
:101ca0000080fa00000006000000fa001ac8bf0019
:101cb0008080fb00b38120009341780002852000e2
:101cc00003f178000040e8001ae8b7001bc8bf0025
:101cd00002e8b70040022000c04088000080fa00ff
:101ce000000006000000fa001ac8bf008080fb0058
:101cf000b3812000934178000285200003f1780031
:101d00000040e8001ae8b7001bc8bf0005e8b700ac
:101d100050022000c04088000080fa000000060049
:101d20000000fa001ac8bf008080fb00b3812000c9
:101d3000934178000285200003f178000040e8001c
:101d40001ae8b7001bc8bf0004e8b7006002200013
:101d5000c04088001ac8bf000080fb0080007800e7
:101d600000852000dd0207000000e0003b003a0093
:101d7000004080001140800000014000c08320002e
:101d8000000041000108780010168000610060002a
:101d900000f0a7000000ea000000e9004f00de00ac
:101da000004078000080fb00610060001116800098
:101db0000100a100010070001016880000852000bd
:101dc00090407800408b200001487800108520006a
:101dd00090407800508b200001487800208520003a
:101de00090407800608b200001487800308520000a
:101df00090407800708b20000148780040852000da
:101e000090407800808b20000148780050852000a9
:101e100090407800908b2000014878006085200079
:101e200090407800a08b2000014878007085200049
:101e300090407800b08b20000148780080c0b3004b
:101e400016e8b700408b2000a0408800a04080002a
:101e5000104078000080fb00a01188000080fa008c
:101e6000000006000000fa000080fa0000000600f2
:101e70000000fa001e00370050408000b1118000c1
:101e80008140780001487800514080009092200005
:101e9000808f500009003200504080008000e80030
:101ea00060408000808f500004003200504080006d
:101eb0000000e800504088000d00370051408000cd
:101ec00090922000808f500007003a00614080000f
:101ed00010922000808f50000300320010922000ea
:101ee000504088000200370010c0b30012e8b7006d
:101ef00090118000610060000000e000deff3a0009
:101f000087c0a9000080fa00000006000200fa0065
:101f10000040eb00004f78000000000061408000ae
:101f200050408000808f5000fcff320060408000f5
:101f3000104f7800604080000000e800604088009a
:101f400061408000a0922000808f500002003a0083
:101f500010922000604088001e4078000080fa0047
:101f6000000006000200fa00004f780000000000a8
:101f70001c0007000004a2000004e000fcff3a007f
:101f8000704080001e487800704080000000e8002b
:101f9000704088007140800010922000808f5000b7
:101fa00002003a00809120007040880097e0a8006d
:101fb0000080fa00000006000000fa006140800086
:101fc000504080000080680000f0a7000000ea0098
:101fd0000000ea004f00de00004078000080fa00b8
:101fe000000006000400fa008140800011079800fc
:101ff000714080001e009000808f5000060031006c
:102000009e00900070408000008050000000e900b9
:10201000000f7800050037009e009000704080009f
:102020000080500068004000000f78001e0078001b
:1020300000f0a7000000ea000000ea004f00de0008
:10204000004078000080fa00000006000000fa005e
:102050007140800080408000808f500009003a006d
:1020600091118000001020000080600000f0a700a7
:102070000000ea000000ea004f00de0000407800a7
:10208000010037000040eb000080fa00000006006d
:102090000400fa0051408000110798006040800061
:1020a0009e009000808f5000060031009e0090003e
:1020b000604080000080500069004000000f780000
:1020c000040037009e0090006040800000805000b7
:1020d000000f7800f00f20009e007800808f5000e5
:1020e0000200360000c0eb00020037001e0078003e
:1020f000004078000080fa00000006000400fa00aa
:102100008140800011079800714080001e009000ff
:10211000808f5000060031009e00900070408000cb
:10212000008050000000e900000f78000500370033
:102130009e009000704080000080500068004000c9
:10214000000f7800f00f20009e007800808f500074
:102150000200360000c0eb00020037001e007800cd
:10216000004078000080fa00000006000800fa0035
:102170002007980031079800c5ff07000080fb008a
:10218000000f78003e0090009e0f500002003100ca
:10219000be009000010f78000000eb0010079800cf
:1021a0000900370059ff0700ae0090008048780012
:1021b0002e0090000000e800200798001e0090000c
:1021c0000000e800100798001e0090009e0f5000cd
:1021d000f4ff39001e0078000080fa0000000600bd
:1021e0000800fa002007980031079800c3ff070095
:1021f0000080fb00000f78003e0090009e0f500012
:1022000002003100be009000010f78000000eb00da
:1022100010079800090037002e0090001040780049
:10222000ae0090008100e800210798004dff0700f4
:102230001e0090000000e800100798001e009000ab
:102240009e0f5000f4ff39001e0078000080fa0055
:10225000000006000400fa000000eb00000f780008
:102260008bff070020479800a4ff07003047980025
:102270002e4090000080fb000000e00003003200d0
:10228000e90f500003003200040037001e20a000b8
:10229000040037001e00a000020037001e10a0003e
:1022a000000000003e4090000080fb000000e000c5
:1022b00003003200e90f5000030032000400370031
:1022c0001e30a000020037001e40a00000000000e9
:1022d0001e0078000080fa00000006000400fa00ea
:1022e00010079800614080001e009000008f4000a1
:1022f000020037009e007800698f5000a0922000f5
:102300009e007800808f5000faff3e001e0078008b
:10231000104078000080fa00000006000000fa007b
:102320005bff07000080fb000000e9004f00de00bb
:10233000004078000080fa00000006000000fa006b
:102340006eff07000080fb000000e9004f00de0088
:10235000004078000080fa00000006000000fa004b
:10236000901180000080fa00000006000000fa00d2
:1023700062ff07000004e0000f003200814080008f
:1023800070408000808f5000050036008040800043
:102390008000780070408000008050000700370007
:1023a00080408000800078007040800000805000f5
:1023b00069004000010037000000eb000080fa00d7
:1023c000000006000000fa0031ff07000004e000f2
:1023d0000f0032006140800050408000808f50002c
:1023e000050036006040800080007800504080008a
:1023f00000805000070037006040800080007800b7
:10240000504080000080500069004000010037000b
:102410000000eb000080fa00000006000000fa0057
:1024200031e2a8003342a8000080fa000000060054
:102430000000fa0031e2a9003342a9000080fa004e
:042440000000060092
:020000040000fa
:102444004a0a000002000000000000002408000006
:1024540002000000000000001a0a00002000000032
:102464000000000026080000020000000200000036
:10247400ffff00003a0a0000100000000000000006
:102484002a090000f00000000200000000072c00f0
:1024940007a40700c207e00007fe07001c083a0073
:1024a40008c60800e4080200092009003e095c008f
:1024b40009e80900060a24000a420a00600a7e00ac
:1024c4000a220b00400b5e000b7c0b009a0bb80039
:1024d4000b5c0c007a0c98000cb60c00d40cf200c7
:1024e4000cfa0d00180e36000e540e00720e9000f9
:1024f4000e320f0000000000000000000000000089
:1025040000000000000000000000000000000000c7
:1025140000000000000000000000000000000000b7
:1025240000000000000000000000000000000000a7
:102534000000000000000000000000000000000097
:102544000000000000000000000000000000000087
:102554000000000000000000000000000000000077
:102564000000000000000000000000000000000067
:102574000000000000000000000000000000000057
:102584000000000000000000000000000000000047
:102594000000000000000000000000000000000037
:1025a4000000000000000000000000000000000027
:1025b4000000000000000000000000000000000017
:1025c40000000000000000000000000028080000d7
:1025d40002010000000000000008000024000000c8
:0825e4000000000000000000ef
:020000040000fa
:1025ec000000fa000021ef00d0e320001008880062
:1025fc000002280020088800204180000000e00034
:10260c0002003a00e0342100240007008460a90095
:10261c009460a800a0a420008040eb000148780042
:10262c000080fa00000006000200fa00000f78009b
:10263c009e00780011088800a0a420008040eb00c8
:10264c00014878000080fa00000006000000fa0043
:10265c00100880000080fa00000006000200fa005a
:10266c00000f78009e00780001088800a0a42000cc
:10267c008040eb00014878000080fa000000060062
:10268c000000fa00000880000080fa00000006003c
:10269c000000fa000080fa00000006000200fa00b8
:1026ac00000f78009460a9009e00780021418800fa
:1026bc009460a8000080fa00000006000000fa00f8
:1026cc00a0a420008040eb00014878009460a80092
:1026dc0005e1a8000080fa00000006000000fa00e6
:1026ec0005e1a9009460a9000080fa000000060032
:1026fc000200fa00a0a42000104f78001e407800c1
:10270c000004e00003003200a0a420008040eb0095
:10271c00014878001e4078000080fa000000060096
:10272c000000fa00b0a42000104078000080fb00ec
:10273c000080fa00000006000000fa00b0a420009f
:10274c008040eb00014878000080fa000000060091
:10275c000000fa00c422ef0000002500601688007b
:10276c00c022ef0010cf2a00401688006820ef002e
:10277c006a20ef00c622ef00ce22ef0070e32100aa
:10278c0060198800113a8000f00b20000081600075
:10279c00600420007105200023742000804978001b
:1027ac0081497800824978007136800000fe2f0044
:1027bc00008060003000b300703688006136800005
:1027cc0000fe2f00008060005000b30060368800cf
:1027dc002135800000fe2f0000806000f000b30067
:1027ec00203588003135800000fe2f00008060000d
:1027fc00d000b30030358800103a8000000178001a
:10280c000260a000600420007105200023742000e9
:10281c008049780081497800824978000080fa006c
:10282c00000006000000fa0021068000f08f2f0047
:10283c00008060000080a0002006880091058000c8
:10284c00f0ff28000080600000c0a0009005880008
:10285c0091058000f08f2f00008060000080a000a8
:10286c009005880021068000f0f82f0000806000a1
:10287c000040a000200688005105800080ff2f003a
:10288c00008060000000a000500588004105800019
:10289c00f0ff28000080600000c0a0004005880008
:1028ac0031058000f0ff28000080600000c0a0000f
:1028bc003005880021058000f0ff280000806000b2
:1028cc0000c0a000200588000080fa00000006006f
:1028dc000800fa0020079800310798000080eb00f0
:1028ec00000f7800130037002e0090009040780005
:1028fc001e0078000040780000c068002047980057
:10290c002e0090000000e800200798001e007800c0
:10291c004800de00000f78002e4090000080fb0085
:10292c008000400000472800008040001000780024
:10293c001e0f68003e00900000f0a7000000ea00a7
:10294c000000ea004f00de0000407800be0090005e
:10295c008100e900310798000004e000e2ff3a0032
:10296c001e0078000080fa00000006000000fa004b
:10297c0000002300203a88004827ef007027ef0062
:10298c007227ef007427ef00120020008007200050
:10299c00a109200033742000804978008149780017
:1029ac00824978002200200060042000710520007c
:1029bc00237420008049780081497800824978008e
:1029cc000080fa0000000600000f78009e007800de
:1029dc0031418800ffff37000000fa00a0a1200061
:1029ec008007780020a32000000188000080fa00f6
:1029fc00000006000000fa00800020000011880092
:102a0c002222ef00001a2000401188009560a800d7
:102a1c0021e2a8002342a8000080fa000000060072
:102a2c000000fa000621ef0010002000600888006a
:102a3c00000028008008880084e0a90094e0a80029
:102a4c000080fa00000006000000fa0040ff0700ba
:102a5c0074ff0700c5ff0700e6ff0700f0ff070043
:102a6c00060007000080fa00000006000000fa00d3
:102a7c00beff07000080fa00000006000000fa000c
:102a8c000080fa00000006000000fa00eeff0700cc
:042a9c00ffff370001
:020000040000fa
:020000040001f9
:0457f8003ff9000075
:020000040000fa
:020000040001f9
:0457fc00fd3d00006f
:00000001FF
